:100000000C94EE000C9416010C9416010C9416013D
:100010000C9416010C9416010C9416010C94160104
:100020000C9416010C9416010C9416010C941601F4
:100030000C9416010C9416010C9416010C941601E4
:100040000C942F120C9416010C949F120C9479129C
:100050000C9416010C9416010C9416010C941601C4
:100060000C94D1120C94160156204155544F53480C
:100070004144452D44554D4220332E34204E3D0001
:1000800076332E34206E6F20736176656420706F36
:10009000730076332E3420706F7320726573746F23
:1000A000726564004155544F53484144452D4455B1
:1000B0004D420020573D0020443D0020463D002099
:1000C000453D0020423D0020413D0020553D00209F
:1000D0004B3D00204D3D005120503D0045525220E7
:1000E000636D64004552522072616E676500522054
:1000F000004552522061726773004F4B00455252C7
:10010000206275737900455252206D6F6465004519
:1001100052522061726773004F4B0045525220616A
:10012000726773004F4B00455252206D6F746F72AF
:10013000004552522061726773004F4B0045525286
:10014000206D6F746F7200455252206172677300A8
:100150004F4B00455252206D6F746F7200455252E2
:100160002061726773004F4B00455252206D6F74CF
:100170006F72004552522061726773004F4B004509
:1001800052522061726773000000000024002700B3
:100190002A0000000000250028002B0004040404AD
:1001A0000404040402020202020203030303030321
:1001B00001020408102040800102040810200102FE
:1001C00004081020000000080002010000030407DA
:1001D00000000000000000005014381E11241FBE53
:1001E000CFEFD8E0DEBFCDBF11E0A0E0B1E0E2E1AB
:1001F000F6E402C005900D92A03CB107D9F725E0C6
:10020000A0ECB1E001C01D92A934B207E1F710E003
:10021000CDEED0E004C02197FE010E949C21CC3E8F
:10022000D107C9F70E94DA140C94FC220C94000048
:1002300091E09093C4028093E6021092C50210925E
:10024000E7020895FC0123E380E047E0215071F0CC
:100250009191982738E0892F880F97FF03C0990F55
:10026000892F84273150982FB1F7F0CF0895089542
:10027000089590E0FC01EC53FE4F2491FC01E05501
:10028000FE4F3491FC01E456FE4FE491EE23C9F099
:10029000222339F0233001F1A8F4213019F1223062
:1002A00029F1F0E0EE0FFF1FEE56FE4FA591B4913D
:1002B0008FB7F894EC91611126C030953E233C93A2
:1002C0008FBF08952730A9F02830C9F0243049F7AE
:1002D000809180008F7D03C0809180008F77809314
:1002E0008000DFCF84B58F7784BDDBCF84B58F7D71
:1002F000FBCF8091B0008F778093B000D2CF8091F8
:10030000B0008F7DF9CF3E2BDACFCF93DF9390E013
:10031000FC01E055FE4F249184569E4FFC018491D0
:100320008823D1F090E0880F991FFC01E857FE4F19
:10033000A591B491FC01EE56FE4FC591D491611187
:100340000EC09FB7F8948C91E22FE0958E238C938A
:100350002881E223E8839FBFDF91CF9108958FB773
:10036000F894EC91E22BEC938FBFF6CF8E50806423
:1003700080937C0080917A00806480937A008091E1
:100380007A0086FDFCCF80917800909179000895E5
:100390003FB7F89480916E0290916F02A091700225
:1003A000B091710226B5A89B05C02F3F19F00196A8
:1003B000A11DB11D3FBFBA2FA92F982F8827BC01BF
:1003C000CD01620F711D811D911D42E0660F771FE7
:1003D000881F991F4A95D1F70895EF92FF920F93C6
:1003E0001F93CF93DF938C017B01D0E0C0E0F70136
:1003F000EC0FFD1F6491662361F0D801ED91FC9133
:100400000190F081E02DC8010995892B11F021960A
:10041000EECFCE01DF91CF911F910F91FF90EF9022
:100420000895AF92BF92CF92DF92EF92FF920F9317
:100430001F93CF93DF936C017B018B01040F151F7A
:10044000EB015E01AE18BF08C017D10759F06991E2
:10045000D601ED91FC910190F081E02DC601099546
:10046000892B79F7C501DF91CF911F910F91FF90F3
:10047000EF90DF90CF90BF90AF900895FC01538D27
:10048000448D252F30E0842F90E0821B930B54176E
:1004900010F0CF96089501970895FC01918D828DFB
:1004A000981761F0A28DAE0FBF2FB11D5D968C9194
:1004B000928D9F5F9F73928F90E008958FEF9FEFD3
:1004C0000895FC01918D828D981731F0828DE80F8F
:1004D000F11D858D90E008958FEF9FEF0895FC0149
:1004E000918D228D892F90E0805C9F4F821B910916
:1004F0008F739927089588EE92E00E946F0221E0A1
:10050000892B09F420E0822F089580E090E0892B68
:1005100029F00E947B0281110C9400000895FC01D7
:10052000A48DA80FB92FB11DA35ABF4F2C91848D54
:1005300090E001968F739927848FA689B7892C93B1
:10054000A089B1898C91837080648C93938D848D04
:10055000981306C00288F389E02D80818F7D808307
:100560000895EF92FF920F931F93CF93DF93EC01C7
:1005700081E0888F9B8D8C8D98131AC0E889F9894A
:10058000808185FF15C09FB7F894EE89FF8960834D
:10059000E889F98980818370806480839FBF81E0CE
:1005A00090E0DF91CF911F910F91FF90EF90089510
:1005B000F62E0B8D10E00F5F1F4F0F731127E02EEB
:1005C0008C8D8E110CC00FB607FCFACFE889F98923
:1005D000808185FFF5CFCE010E948F02F1CFEB8D98
:1005E000EC0FFD2FF11DE35AFF4FF0829FB7F894F7
:1005F0000B8FEA89FB8980818062CFCF682F88EEDC
:1006000092E00C94B102CF93DF93EC01888D8823A4
:10061000B9F0AA89BB89E889F9898C9185FD03C065
:10062000808186FD0DC00FB607FCF7CF8C9185FF4A
:10063000F2CF808185FFEDCFCE010E948F02E9CFFE
:10064000DF91CF91089508954F925F926F927F92BC
:100650008F929F92AF92BF92CF92DF92EF92FF92D2
:10066000CF93DF9300D000D000D0CDB7DEB79E830C
:100670008D83DC0158968D909D90AD90BC905B97DA
:1006800020E030E0A901C501B4010E940B1F8823BE
:1006900009F472C0A5019401C501B4010E946F2044
:1006A0006B017C01ED81FE8160A171A182A193A10A
:1006B0009B01AC010E949F1E9B01AC01C701B601CA
:1006C0000E94101F0E94821F6B017C01AD81BE81C0
:1006D00050964D905D906D907C90539754968D916F
:1006E0009D910D90BC91A02D89839A83AB83BC838F
:1006F00020E030E0A901C501B4010E946A2018166B
:10070000B4F5BFEFCB1ADB0AEB0AFB0A4C0C5D1CFD
:100710006E1C7F1C89819A81AB81BC8184159505F3
:10072000A605B70549F1AD81BE8154964D925D9203
:100730006D927C925797ED91FC9111970084F18511
:10074000E02DCD0126960FB6F894DEBF0FBECDBFCB
:10075000DF91CF91FF90EF90DF90CF90BF90AF905F
:100760009F908F907F906F905F904F900994C0946E
:10077000D094E094F094CACF26960FB6F894DEBFDA
:100780000FBECDBFDF91CF91FF90EF90DF90CF9064
:10079000BF90AF909F908F907F906F905F904F90A1
:1007A0000895CF93DF93FC012781222359F1EC01B7
:1007B00061E080850E94850161E089850E94850154
:1007C0008F81843011F08830B1F461E08A850E9415
:1007D000850161E08B850E9485018FA58F3F91F097
:1007E00061E00E9485016EA581E068278FA5DF91F9
:1007F000CF910C943901833011F0863071F761E0AC
:100800008A85E9CFDF91CF910895CF93DF93FC01E3
:1008100027812223A9F0EC010190F081E02D0284D0
:10082000F385E02D60E009958FA58F3F49F061E0E9
:100830000E9485016EA58FA5DF91CF910C9439019F
:10084000DF91CF910895DC01ED91FC9122853385F4
:10085000477055276627772741505109610971096B
:10086000473051056105710560F4FA01E65CFB4F04
:100870000C949C214404460448044A044C044E044D
:10088000500461E0F901099465E0FCCF64E0FACF1F
:1008900066E0F8CF62E0F6CF6AE0F4CF68E0F2CF2E
:1008A00069E0F0CFCF93DF93EC01CB01BA0126E0F2
:1008B00030E040E050E00E947D216230710581050A
:1008C000910589F16CF46115710581059105D1F0EF
:1008D0006130710581059105F9F0DF91CF9108959F
:1008E000643071058105910561F124F16530710570
:1008F0008105910591F7E881F9810284F385E02D66
:1009000066E006C0E881F9810284F385E02D64E0A9
:10091000CE01DF91CF910994E881F9810284F385BA
:10092000E02D65E0F5CFE881F9810284F385E02DC3
:1009300061E0EECFE881F9810284F385E02D63E088
:10094000E7CFE881F9810284F385E02D62E0E0CF12
:10095000DC01ED91FC910284F385E02D4370552775
:1009600066277727423051056105710571F04330E4
:1009700051056105710559F0413051056105710559
:1009800011F065E0099466E0FDCF6AE0FBCF69E015
:10099000F9CFCF93DF93EC01CB01BA0123E030E034
:1009A00040E050E00E947D21613071058105910594
:1009B00099F06230710581059105A9F0672B682BCC
:1009C000692BC1F4E881F9810284F385E02D64E0AC
:1009D000CE01DF91CF910994E881F9810284F385FA
:1009E000E02D61E0F5CFE881F9810284F385E02D07
:1009F00062E0EECFDF91CF910895DC01ED91FC91A3
:100A00000284F385E02D437055276627772742300F
:100A100051056105710571F043305105610571059E
:100A200059F0413051056105710511F062E00994FA
:100A300063E0FDCF61E0FBCF60E0F9CFCF93DF93C0
:100A4000EC01E881F9810284F385E02D8A8160E080
:100A5000811162E0CE010995E881F9810284F38574
:100A6000E02D8A8161E0811163E0CE0109958CA5BA
:100A70009DA58230910538F0880F991F880F991F26
:100A800005970197F1F7E881F9810284F385E02D5C
:100A90008A8160E0811162E0CE01DF91CF910994FB
:100AA000CF93DF93EC0120E030E0A901688D798DD0
:100AB0008A8D9B8D0E946A2018162CF4E8A9F9A94A
:100AC000DF91CF910994EAA9FBA9FACFCF92DF92E7
:100AD000EF92FF920F931F93CF93DF93DC01179652
:100AE000CC91C43039F0C83059F1C33019F0C63058
:100AF00049F1C2E08C01085F1F4FF12CE12CC62E9A
:100B0000D12CD1E0F8016481C6010E2C02C095956C
:100B100087950A94E2F780FD6D270F5F1F4F808154
:100B20000E943901BFEFEB1AFB0AEC1658F3DF9174
:100B3000CF911F910F91FF90EF90DF90CF9008958C
:100B4000C4E0D8CFC3E0D6CFDC011796EC9117975D
:100B5000E93008F038C0F0E0E055FA4F0C949C21E1
:100B6000B905BF05C505CB05D105E305D705E305E7
:100B7000DD05ED91FC910684F785E02D0994ED915A
:100B8000FC910088F189E02DF9CFED91FC9102886C
:100B9000F389E02DF3CFED91FC910488F589E02DE8
:100BA000EDCFED91FC910688F789E02DE7CFED912F
:100BB000FC91008CF18DE02DE1CFED91FC91028C48
:100BC000F38DE02DDBCF0895CF92DF92EF92FF926D
:100BD0000F931F93CF93DF93EC016A017B0120E019
:100BE00030E0A901CB01B6010E940B1F87FF04C0B2
:100BF000F7FAF094F7F8F094A70196016C8D7D8DCB
:100C00008E8D9F8D0E940B1F882309F44AC0CC8EC5
:100C1000DD8EEE8EFF8E8E01005C1F4FA7019601C8
:100C200060E074E284E799E40E94101FF801608399
:100C30007183828393838CA99DA9AEA9BFA918163D
:100C400019061A061B066CF5688D798D8A8D9B8DA9
:100C50009B01AC010E946F206B017C0168A179A10E
:100C60008AA19BA19B01AC010E949F1E9B01AC012C
:100C7000C701B6010E94101F0E94821F6CAB7DABA2
:100C80008EAB9FABE881F9810084F185E02DCE0128
:100C9000DF91CF911F910F91FF90EF90DF90CF9058
:100CA0000994DF91CF911F910F91FF90EF90DF900A
:100CB000CF9008954F925F926F927F928F929F9202
:100CC000AF92BF92CF92DF92EF92FF920F931F935A
:100CD000CF93DF93EC01CC88DD88EE88FF8888898C
:100CE0009989AA89BB89C81AD90AEA0AFB0A688DB8
:100CF000798D8A8D9B8D9B01AC010E946F204B01E9
:100D00005C0168A179A18AA19BA19B01AC010E9411
:100D10009F1E9B01AC01C501B4010E94101F0E94DF
:100D2000821FC114D104E104F10409F0B6C062309D
:100D30007105810591050CF0D0C01B821C821D82BB
:100D40001E82188E198E1A8E1B8E1CAA1DAA1EAA10
:100D50001FAAC12CD12C7601C701B601DF91CF911A
:100D60001F910F91FF90EF90DF90CF90BF90AF90C9
:100D70009F908F907F906F905F904F900895101686
:100D8000110612061306B4F46C157D058E059F0539
:100D90001CF42A812111A1C09B01AC01882799274D
:100DA000DC01821B930BA40BB50B8CAB9DABAEABE4
:100DB000BFAB93C0011511052105310509F48DC0A4
:100DC0006C157D058E059F050CF087C08A818823F0
:100DD00009F483C030952095109501951F4F2F4F32
:100DE0003F4F0CAB1DAB2EAB3FAB77C001151105D0
:100DF0002105310509F471C08824992454018C1807
:100E00009D08AE08BF08681579058A059B050CF09A
:100E100064C08A81811161C0DDCFCCACDDACEEACA9
:100E2000FFACA7019601C701B6010E949F1E2B01CE
:100E30003C01C501B4010E94BA1F20E030E040E847
:100E400050E40E946F2020E030E040E85FE30E9421
:100E50009F1E9B01AC01C301B2010E94101F9B01A8
:100E6000AC01C701B6010E949E1E3B016C01FE0150
:100E7000E05CFF4FE080F180028113819701A801BF
:100E80000E946A20181614F473018601C701D80164
:100E90008CAF9DAFAEAFBFAF3AC00CA91DA92EA9B4
:100EA0003FA91C141D041E041F040CF468CF101667
:100EB0001106120613060CF099CF0027112798018E
:100EC0000C191D092E093F09601771078207930746
:100ED0000CF062CF2A8121115FCF8CA89DA8AEA80B
:100EE000BFA881149104A104B10409F096CF88AD84
:100EF00099ADAAADBBAD8CAF9DAFAEAFBFAF81E03A
:100F00001C141D041E041F040CF080E08A833FEFB4
:100F1000831A930AA30AB30A8CAA9DAAAEAABFAAEF
:100F20008CAC9DACAEACBFACC501B4010E94891FB6
:100F30006B017C01CB82DC82ED82FE82A5019401F3
:100F400060E074E284E799E40E94101F688F798F53
:100F50008A8F9B8F2A812111FFCE9058688F798FBD
:100F60008A8F9B8FF9CE2091E301260F3327331F01
:100F700021323105ECF42091BE02FC0190E080E0CA
:100F8000243069F082E00895A091E3012191AC0141
:100F90004D535E4FA40FB52FB11D2C9301968617AC
:100FA00098F38091E301680F6093E30180E0089576
:100FB00081E008951092BE0281E08093BD021092FC
:100FC000980261E082E10E94390161E083E10E94C0
:100FD0003901E9EBF0E080818E7F808380818D7F15
:100FE000808388E48093B80085E48093BC000895F2
:100FF00010927702109276021092C5021092E702C8
:101000000E94DA0787E391E090937502809374025F
:1010100088E391E090937302809372020895CF93D6
:10102000DF9391E09093C2018823B9F0C091B8009A
:10103000D091BA008091BC008A7B8093BC0060E0B4
:1010400082E10E94390160E083E10E9439010E943F
:10105000DA07D093BA00C093B800DF91CF9108951A
:10106000CF92DF92EF92FF920F931F93CF93DF9374
:10107000D091E70281E0D13208F09CC0C091E60235
:101080000E94C8016B017C018091BE0281116CC07D
:1010900082E08093BE0281E08093BD028FEF809357
:1010A000BC021092BB02D093BA02A6ECB2E0EAE90D
:1010B000F2E080E0D8138DC01092990280919902DD
:1010C000CC0FC82BC093990280919802813009F00F
:1010D00084C0109298020E94C8016B017C0180912B
:1010E00099028093BB008091C0029091C102A091AF
:1010F000C202B091C302892B8A2B8B2BA1F00E94D4
:10110000C8010091C0021091C1022091C202309129
:10111000C3026C197D098E099F0906171707280756
:10112000390708F442C08091BC0083FDD8CF85EC1C
:101130008093BC000E94C8016B017C018091BE02BB
:10114000823009F44CC08091BC028F3F09F469C021
:101150008091BC02803209F466C08091BC02803369
:1011600009F463C084E026C08091C0029091C1025E
:10117000A091C202B091C302892B8A2B8B2B09F458
:1011800083CF0E94C8010091C0021091C10220913A
:10119000C2023091C3026C197D098E099F0906179E
:1011A00017072807390708F06FCF8091BF020E9408
:1011B0000F0885E01092C5021092E7021092C40257
:1011C000DF91CF911F910F91FF90EF90DF90CF9023
:1011D00008959D9191938F5F6DCF85EEA9CF8091FA
:1011E000C0029091C102A091C202B091C302892BAA
:1011F0008A2B8B2B09F4A2CF0E94C8010091C00258
:101200001091C1022091C2023091C3026C197D0974
:101210008E099F09061717072807390708F08ECF90
:10122000C4CF80E0C7CF82E0C5CF83E0C3CFCF92E9
:10123000DF92EF92FF920F931F93CF93DF93D82FFC
:10124000C62F613208F098C00E94C8016B017C0172
:101250008091BE0281116BC081E08093BE028093B9
:10126000BD029FEF9093BC021092BB029C0F909323
:10127000BA028093990280919902DD0FD82BD09306
:10128000990280919802813009F078C010929802FA
:101290000E94C8016B017C01809199028093BB0080
:1012A0008091C0029091C102A091C202B091C3028C
:1012B000892B8A2B8B2BA1F00E94C8010091C002C0
:1012C0001091C1022091C2023091C3026C197D09B4
:1012D0008E099F09061717072807390708F448C021
:1012E0008091BC0083FDD8CF85EC8093BC000E9428
:1012F000C8016B017C018091BE02813009F440C0BD
:101300008091BB028C1710F4C091BB02EAE9F2E0B5
:10131000A8E7B2E080E08C1355C08C2FDF91CF910D
:101320001F910F91FF90EF90DF90CF9008958091E3
:10133000C0029091C102A091C202B091C302892B58
:101340008A2B8B2B09F484CF0E94C8010091C00224
:101350001091C1022091C2023091C3026C197D0923
:101360008E099F09061717072807390708F070CF5D
:101370008091BF020E940F08C0E0CFCF85EEB5CFAD
:101380008091C0029091C102A091C202B091C302AB
:10139000892B8A2B8B2B09F4AECF0E94C8010091B8
:1013A000C0021091C1022091C2023091C3026C1997
:1013B0007D098E099F09061717072807390708F0C6
:1013C0009ACFD6CF91919D938F5FA5CF0895E0914D
:1013D000770280917602E81730F4F0E0E858FD4F8C
:1013E000808190E008958FEF9FEF089590917702AC
:1013F000809176022FEF3FEF981748F4E92FF0E045
:10140000E858FD4F208130E09F5F90937702C9013B
:1014100008958091760290917702891B990B089527
:10142000CF92DF92EF92FF920F931F93CF93DF93B0
:101430007C01CB018A012091C402222389F0EB01B7
:101440006B01C40ED51ECC15DD0569F06991D7017D
:10145000ED91FC910190F081E02DC7010995F3CF4A
:10146000642F0E94B307C801DF91CF911F910F91A4
:10147000FF90EF90DF90CF900895CF93DF931F926E
:10148000CDB7DEB769832091C4022223F9F0209101
:10149000E702203258F021E030E0FC013383228360
:1014A00090E080E00F90DF91CF9108958091C50288
:1014B000E82FF0E0EA53FD4F998190838F5F80938E
:1014C000C5028093E70281E090E0ECCF61E0CE01BD
:1014D00001960E94B307F7CF682F85E893E00C943C
:1014E0003D0A682F85E893E00C943D0ACF93DF9383
:1014F000D62FC72FFC01808180620E94180182E1F3
:101500000E94710A8D2F0E94710A8C2F0E94710A0D
:10151000DF91CF910C94300890E080E008958F9295
:101520009F92AF92BF92CF92DF92EF92FF92EDEA3D
:10153000F3E030E020E080E041E050E084889588EE
:10154000A688B788C088D188E288F3888C149D0467
:10155000AE04BF0439F0BA01022E01C0660F0A942E
:10156000EAF7862B2F5F3F4FEC5BFF4F26303105AC
:1015700029F7FF90EF90DF90CF90BF90AF909F90B2
:101580008F900895EDEAF3E080899189A289B3896B
:101590004489558966897789481759076A077B07FF
:1015A00081F0848B958BA68BB78B14AA15AA16AAEB
:1015B00017AA1382148215821682108E118E128E33
:1015C000138EEC5BFF4F85E0E534F807E9F681E028
:1015D00080930F020895CF93DF938EE00E94B601AF
:1015E000EC019093600280935F02BC01990F880B1D
:1015F000990B0E94BA1F2CE735ED4AE45CE30E9488
:101600006F2060930A0170930B0180930C019093FB
:101610000D0181E0CA38D2400CF480E0DF91CF9117
:101620000895CF93DF93EC0160E0C11580E1D80706
:10163000A8F085E893E00E943D0A60E185E893E028
:101640000E943D0A60E085E893E00E943D0A60E068
:1016500085E893E0DF91CF910C943D0A85E893E013
:10166000209771F40E943D0A60E085E893E00E94B3
:101670003D0A60E085E893E00E943D0A60E1E8CF22
:101680000E943D0A60E085E893E00E943D0A6C2FCD
:1016900085E893E00E943D0A6D2FDACFEF92FF922A
:1016A0000F931F93CF93DF93182FE62EE82FE69525
:1016B000F0E0E657FE4F80810E9418011170C12FA3
:1016C00020E0D22FC45EDE4F888124E0829FC001DB
:1016D000112406960E946C0AD0E0C0E0F12C87012C
:1016E0000C2E02C0159507950A94E2F70170112798
:1016F00060E085E893E00E943D0A60E00115110575
:1017000009F060E185E893E00E943D0A60E085E829
:1017100093E00E943D0A60E1012B09F060E085E85A
:1017200093E00E943D0A2196C430D105C1F6DF91B5
:10173000CF911F910F91FF90EF900C9430083F9242
:101740004F925F926F927F928F929F92AF92BF92D1
:10175000CF92DF92EF92FF920F931F93CF93DF937D
:10176000A82FB0E090910801A85FBD4FEC91E60F63
:10177000692F660F660F6150E623EC9320914F02AC
:1017800021111FC09130C1F4E370F0E0EA59FE4F1F
:101790006081DF91CF911F910F91FF90EF90DF90CB
:1017A000CF90BF90AF909F908F907F906F905F9001
:1017B0004F903F900C944E0BE770F0E0E25AFE4FD2
:1017C000E7CF382E692F70E088E090E00E94472133
:1017D000E69FD02C1124E090C001F090C1018D2D26
:1017E0008850990BFC01EF71FF27EE0FFF1FE25E9F
:1017F000FE4FA081B18197010E94A22128EE822E86
:1018000023E0922EA12CB12CA50194010E947D21F0
:1018100029018901ED2DEF71F0E0EE0FFF1FE25E6F
:10182000FE4FA081B18197010E94A221A5019401E0
:101830000E947D216901E32DE695F0E0E657FE4F19
:1018400080810E941801932D9170C92F20E0D22F22
:10185000C45EDE4F888124E0829FC0011124069679
:101860000E946C0A80E090E1D7FC02C08C199D09AF
:101870000E94110B1C141D0414F4D12CC12CC601A0
:10188000905F0E94110BC2011016110614F490E033
:1018900080E0905F0E94110B80E090E117FD02C094
:1018A000841995090E94110BDF91CF911F910F911F
:1018B000FF90EF90DF90CF90BF90AF909F908F9070
:1018C0007F906F905F904F903F900C94300861E054
:1018D00080E00C949F0B6FEF80E00C949F0B61E015
:1018E00081E00C949F0B6FEF81E00C949F0B61E003
:1018F00082E00C949F0B6FEF82E00C949F0B61E0F1
:1019000083E00C949F0B6FEF83E00C949F0B61E0DE
:1019100084E00C949F0B6FEF84E00C949F0B61E0CC
:1019200085E00C949F0B6FEF85E00C949F0B08955E
:101930000E94170910927702809376020895EF9221
:10194000FF920F931F93CF93DF938C01C62FE42E4A
:1019500084E1F82ED2E1683020F0C85095E1F92EEC
:10196000D3E1F801808180620E9418018F2D0E94CE
:10197000710A0E943008F8018081806261E070E0A5
:1019800090E00E94980C85E893E00E94F60921E01F
:1019900030E001C0220FCA95EAF7F1E0C82FC22B50
:1019A000EF1619F02095C22FC823F80180818062BC
:1019B0000E9418018D2F0E94710A8C2F0E94710ABB
:1019C000DF91CF911F910F91FF90EF900C94300811
:1019D000FC01962F828D8F3F31F0603140F4CF01B2
:1019E0004B960C949F0C642F892F0C943901089509
:1019F000CF93DF93C82FD1E082FB442740F94D27D6
:101A000068E08CEA93E00E949F0CC1FB442740F9F8
:101A10004D2767E08CEA93E00E949F0C4C2F409585
:101A2000417066E08CEA93E0DF91CF910C949F0CBB
:101A3000FF920F931F93CF93DF938C01C62FF42E49
:101A4000D0E0683010F0C850D1E0F80180818062A9
:101A50000E9418018D2F0E94710A0E943008F8011F
:101A60008081806261E070E090E00E94980C85E8DF
:101A700093E00E94F60921E030E001C0220FCA95F0
:101A8000EAF7C82FC22BFF2019F02095C22FC823D8
:101A9000F801808180620E9418018D2F0E94710AD6
:101AA0008C2F0E94710ADF91CF911F910F91FF90AF
:101AB0000C943008603110F40C94180D0895CF93F5
:101AC000DF93EC0140E06E810E94E80C41E06E8102
:101AD000CE010E94E80C40E06E81CE010E94E80C2D
:101AE0008BE891E00197F1F7DF91CF910895AF92E4
:101AF000BF92CF92DF92EF92FF920F931F93CF93FB
:101B0000DF93EC018A8D8E01095F1F4FC62ED12C09
:101B10008F3F09F480C07E018BE1E80EF11C8B8DB4
:101B200080620E94180182E10E94710A0E943008BE
:101B30008B8D806262E070E090E00E94980C85E8F6
:101B400093E00E94F609B82E85E893E00E94F6091A
:101B500060E0782FCB018B29F80130E020E001E034
:101B600010E04191B801042E02C0660F771F0A945D
:101B7000E2F76095709586239723B601022E02C086
:101B8000759567950A94E2F76170772702C0660F32
:101B9000771F4A95E2F7862B972B2F5F3F4F243014
:101BA0003105F9F62E81680102C0CC0CDD1C2A95A6
:101BB000E2F7C094D094C822D922B601C7010E948E
:101BC000760A8E81B80102C0660F771F8A95E2F708
:101BD000C62AD72AB601C7010E94760A8E81B801AB
:101BE00002C0660F771F8A95E2F7609570956C21A9
:101BF0007D21C7010E94760A8BE891E00197F1F7F9
:101C0000DF91CF911F910F91FF90EF90DF90CF90D8
:101C1000BF90AF900895F12CE12C5E01EBE1AE0E88
:101C2000B11CF80181918F019A8D9F3F39F141E0FC
:101C3000682FC5010E945A0DA6010E2C02C05595B1
:101C400047950A94E2F74170F80131976081CE011F
:101C50000E94E80CFFEFEF1AFF0A84E0E816F10497
:101C600001F7CE01DF91CF911F910F91FF90EF907F
:101C7000DF90CF90BF90AF900C945F0D61E00E9419
:101C80008501DACFAF92BF92CF92DF92EF92FF92AF
:101C90000F931F93CF93DF93EC01F62E6C810E947C
:101CA000E80C6D816F3F21F040E0CE010E94E80C0E
:101CB0000F2D10E08C8984FF3BC06E0187E0C80EB9
:101CC000D11CF12CE12C5E01EBE1AE0EB11CF60152
:101CD00081916F019A8D9F3F39F141E0682FC501D5
:101CE0000E945A0DA8010E2C02C0559547950A94E2
:101CF000E2F74170F60131976081CE010E94E80C55
:101D0000FFEFEF1AFF0A88E0E816F10401F7CE01B1
:101D1000DF91CF911F910F91FF90EF90DF90CF90C7
:101D2000BF90AF900C945F0D61E00E948501DACF07
:101D3000B80184E0759567958A95E1F7CE010E9418
:101D4000770D6F2DCE01DF91CF911F910F91FF90F5
:101D5000EF90DF90CF90BF90AF900C94770D40E064
:101D6000682F81E993E00C94420ECF93DF93CDB7B7
:101D7000DEB728970FB6F894DEBF0FBECDBF98E050
:101D8000E4E1F1E0DE01119601900D929A95E1F700
:101D90009091A903981708F48FEF90E0880F991F8E
:101DA00021E030E02C0F3D1F820F931FFC0180814A
:101DB000806828960FB6F894DEBF0FBECDBFDF91C6
:101DC000CF910C94AF0E41E00E94420E81E090E072
:101DD00008958F929F92AF92BF920F931F93CF93CC
:101DE000DF93CDB7DEB7A1970FB6F894DEBF0FBE75
:101DF000CDBF19A2423008F44AE08E010F5D1F4F9B
:101E0000842E912CB12CA12CA50194010E945B2160
:101E1000E62FB901CA01EA3044F5E05DD801EE933E
:101E20008D01232B242B252B79F790E080E0109750
:101E300069F0FD0101900020E9F73197AF014A1BDD
:101E40005B0BBD0188EE92E00E941102A1960FB6D5
:101E5000F894DEBF0FBECDBFDF91CF911F910F91E0
:101E6000BF90AF909F908F900895E95CD7CFCF92AD
:101E7000DF92EF92FF92CF93DF9397FF19C06B0130
:101E80007C018DE20E94FE02EC0166277727CB01E0
:101E90006C197D098E099F094AE00E94E90E8C0F9A
:101EA0009D1FDF91CF91FF90EF90DF90CF9008952D
:101EB0004AE0DF91CF91FF90EF90DF90CF900C94AC
:101EC000E90E42E050E06DEB71E088EE92E00C9498
:101ED0001102CF93DF93BC0188EE92E00E94ED01E6
:101EE000EC010E94610F8C0F9D1FDF91CF9108952F
:101EF00068E670E088EE92E00E94ED0166E070E036
:101F000080E090E00E94370F0C94610F0F931F93B5
:101F10000E944C1E611571058105910579F08B01B8
:101F20009C0101501109210931098FEF860F0630FC
:101F300011052105310518F08EEF01C08FEF1F91BB
:101F40000F910895CF92DF92EF92FF920F931F931C
:101F5000CF93DF938B01C82FD0E0289686E0CC0F7B
:101F6000DD1F8A95E1F76B0123E3C20ED11C7B01D3
:101F7000C61BD70BCE018E0D9F1D0E94881EF70138
:101F800081937F01EC15FD05A9F7F801808191810E
:101F900085359A4539F4C8010E94220191E0F80183
:101FA00022A9281390E0892FDF91CF911F910F91E3
:101FB000FF90EF90DF90CF9008954F925F926F92D5
:101FC0007F928F929F92AF92BF92CF92DF92EF92C9
:101FD000FF92CF93DF93EC016A017B0120E030E0B8
:101FE000A901CB01B6010E940B1F87FF04C0F7FABD
:101FF000F094F7F8F09488A099A0AAA0BBA0A7013C
:102000009601C501B4010E940B1F882309F44DC03D
:102010006CA97DA98EA99FA90E94BA1F2B013C0122
:10202000A7019601C501B4010E94101F9B01AC01DC
:10203000C301B2010E946F200E94821F6CAB7DAB76
:102040008EAB9FABA701960160E070E080E090E46A
:102050000E94101F0E94E22026E53EE04DE25FE371
:102060000E946F2020E034E244E759E40E946F2090
:1020700068AF79AF8AAF9BAFC8A2D9A2EAA2FBA290
:10208000E881F9810084F185E02DCE01DF91CF91C7
:10209000FF90EF90DF90CF90BF90AF909F908F9088
:1020A0007F906F905F904F900994DF91CF91FF9058
:1020B000EF90DF90CF90BF90AF909F908F907F90E8
:1020C0006F905F904F9008954F925F926F927F92C2
:1020D0008F929F92AF92BF92CF92DF92EF92FF9238
:1020E00094E4899FF0011124E355FC4FC08CD18CFE
:1020F000E28CF38CE894F7F86091080170E090E0CE
:1021000080E00E94BA1F9B01AC01C701B6010E948A
:10211000101F2DEF3DEA40E05DE30E946F206B0150
:102120007C01609104017091050190E080E00E94C3
:10213000B81F20E030E04AE754E40E94101F4B0132
:102140005C01609100017091010190E080E00E94CB
:10215000B81F2B013C0120E030E048E452E4C70105
:10216000B6010E946F209B01AC01C301B2010E9425
:102170006F2020E034E244E759E40E94101F2B0155
:102180003C01A5019401C501B4010E946F204B01DF
:102190005C01A3019201C301B2010E946F209B0167
:1021A000AC01C501B4010E949F1E0E94E2204B01B8
:1021B0005C01609106017091070190E080E00E944F
:1021C000B81F20E030E04AE754E40E94101FA50148
:1021D00094010E946F204B015C016091020170919B
:1021E000030190E080E00E94B81F20E030E04AE761
:1021F00054E40E94101FA70196010E946F209B01CA
:10220000AC01C501B4010E949F1E4B015C01C0904E
:102210000A01D0900B01E0900C01F0900D0120E03C
:1022200030E040EA50E4C701B6010E946A20181667
:1022300034F0C12CD12C90E4E92E91E4F92EA701C1
:102240009601C501B4010E94101F6B017C0120E0C2
:1022500030E040E85FE30E946A20181634F4C12C95
:10226000D12C80E8E82E8FE3F82E20E030E040E823
:1022700055E4C701B6010E946F200E94891F709328
:10228000C1016093C001FF90EF90DF90CF90BF90AD
:10229000AF909F908F907F906F905F904F90089538
:1022A00085ED8093BC008091C0029091C102A09105
:1022B000C202B091C3020796A11DB11D23E0B695DD
:1022C000A795979587952A95D1F72091BC0024FD75
:1022D00003C01092BE0208954091C0025091C10205
:1022E0006091C2027091C302452B462B472B69F3C4
:1022F0000097A105B10541F02AE22A95F1F700C047
:102300000197A109B109E1CF8091BF020C940F0898
:102310009F92AF92BF92CF92DF92EF92FF920F9374
:102320001F93CF93DF93CDB7DEB7E3970FB6F89443
:10233000DEBF0FBECDBF85E59AE59A838983009104
:102340000602109107020F5F1F4F109307020093C0
:1023500006021C830B83EDEAF3E0AE014B5F5F4F97
:1023600028E032E05E016DE1A60EB11C89E492E046
:10237000C088D188E288F388DA01CD92DD92ED92AF
:10238000FD92AD01D9016D919D01D5016D935D0166
:10239000DC016D91CD01D50115966C93EC5BFF4F7F
:1023A000B5E0E534FB0721F78091080189A780910A
:1023B0004F028AA780910601909107019CA78BA7E5
:1023C00080910401909105019EA78DA78091020143
:1023D0009091030198AB8FA780910001909101012A
:1023E0009AAB89ABCE0101960E9422018BAB0170A2
:1023F0001127085F1F4F86E0000F111F8A95E1F734
:10240000FE0131967F01D12CC12CD7019D907D0119
:102410005601A00EB11EC5010E94881E981621F01B
:10242000692DC5010E94901EBFEFCB1ADB0AE3E3C2
:10243000CE16D10451F7E3960FB6F894DEBF0FBE67
:10244000CDBFDF91CF911F910F91FF90EF90DF9063
:10245000CF90BF90AF909F9008950C9473221F92DD
:102460000F920FB60F9211242F933F938F939F9348
:10247000AF93BF9380916A0290916B02A0916C021E
:10248000B0916D023091690223E0230F2D3758F58A
:102490000196A11DB11D2093690280936A02909359
:1024A0006B02A0936C02B0936D0280916E029091CA
:1024B0006F02A0917002B09171020196A11DB11D31
:1024C00080936E0290936F02A0937002B09371029A
:1024D000BF91AF919F918F913F912F910F900FBE20
:1024E0000F901F90189526E8230F0296A11DB11D8D
:1024F000D2CF1F920F920FB60F9211242F933F93BA
:102500004F935F936F937F938F939F93AF93BF93FB
:10251000EF93FF9388EE92E00E948F02FF91EF917C
:10252000BF91AF919F918F917F916F915F914F91EB
:102530003F912F910F900FBE0F901F9018951F92F3
:102540000F920FB60F9211242F938F939F93EF93B7
:10255000FF93E091F802F091F9028081E091FE0290
:10256000F091FF0282FD1BC09081809101038F5F7B
:102570008F7320910203821741F0E0910103F0E094
:10258000E851FD4F958F80930103FF91EF919F914B
:102590008F912F910F900FBE0F901F9018958081F3
:1025A000F4CF1F920F920FB60F9211242F933F93E7
:1025B0004F935F936F937F938F939F93AF93BF934B
:1025C000EF93FF938091B900887F803609F44AC069
:1025D000F0F5883209F4A7C018F5803109F49BC0E2
:1025E000B8F4882309F4F9C0883009F494C0FF9145
:1025F000EF91BF91AF919F918F917F916F915F917B
:102600004F913F912F910F900FBE0F901F901895F3
:10261000883109F488C0803251F78093BC0214C01D
:10262000803409F49DC040F48033B9F38833F9F65F
:102630008093BC0285ECB0C0803509F485C0883534
:1026400009F496C0883499F60E945011D0CF883989
:1026500009F48CC038F5883729F050F4883611F029
:10266000803729F683E08093BE021092050257C09E
:10267000883809F47BC0803919F0803809F0B7CF69
:1026800080910502803208F071C0E091050281E07E
:102690008E0F809305028091BB00F0E0EB51FE4F5E
:1026A00080833DC0803B39F0E0F4803A09F479C082
:1026B000883A09F09CCF84E08093BE021092E40136
:1026C0001092E301E0917402F091750209958091F6
:1026D000E30181110FC081E08093E3011092C301F7
:1026E00009C0803C09F4A6CF883C09F4A3CF883BFD
:1026F00009F07DCFE091E40181E08E0F8093E40149
:10270000F0E0ED53FE4F80818093BB009091E40197
:102710008091E30129C0809199028093BB0085ECF0
:102720008093BC0064CF9091BB028091BA0298174D
:1027300058F5E091BB0281E08E0F8093BB02F0E080
:10274000E656FD4F8081E9CFE091BB0281E08E0F1C
:102750008093BB028091BB00F0E0E656FD4F808382
:102760009091BB028091BA029817C8F285E8D8CF41
:10277000E091BB0281E08E0F8093BB028091BB0091
:10278000F0E0E656FD4F80838091BD0281115CCF61
:1027900081E08093980284EA8093BC001092BE028C
:1027A00026CF85EC8093BC001092BE02809105027A
:1027B000803230F4E0910502F0E0EB51FE4F1082E0
:1027C0006091050270E0E0917202F091730285EE73
:1027D00091E00995109205020ACF1092BC0234CF05
:1027E000CF93DF93EC018EE691E0998388831F827B
:1027F000188A198A1A8A1B8A1C8A1D8A1E8A1F8AAD
:10280000188E198E1A8E1B8E1C8E1D8E1E8E1F8E7C
:1028100018A219A21AA21BA280E090E0A0E8BFE3D0
:102820008CA39DA3AEA3BFA31B821C821D821E820C
:1028300021E030E03DA72CA72FEF2FA718A619A65F
:102840001AA61BA6188619861A861B8679AB68AB52
:102850005BAB4AAB1CAA1DAA1EAA1FAA18AE19AED2
:102860001AAE1BAE1CAE1DAE1EAE1FAEFE01E05C6E
:10287000FF4F80839183A283B3831A821C861D86B7
:102880001E861F86AC01BD01CE010E94DD0F40E017
:1028900050E060E87FE3CE01DF91CF910C94E40536
:1028A000E8EEF2E01382128288EE93E0A0E0B0E05E
:1028B00084839583A683B78321E931E03183208324
:1028C00025EC30E03587248724EC30E037872687F5
:1028D00020EC30E0318B208B21EC30E0338B228BED
:1028E00022EC30E0358B248B26EC30E0378B268BC6
:1028F000118E128E138E148EE5E8F3E0138212828D
:1029000084839583A683B78383EA91E09183808350
:102910004BE65CE067E67CE08DEA93E00E94F01312
:1029200043E75CE06FE67CE081EF93E00E94F01308
:102930004BE75CE067E77CE085E394E00E94F013FE
:1029400043E85CE06FE77CE089E794E00E94F013E5
:102950004BE85CE067E87CE08DEB94E00E94F013CC
:1029600043E95CE06FE87CE081E095E00E94F013D1
:10297000E1E9F3E01382128285EB91E09183808399
:10298000128E148A8FE084838EE085838DE08683A7
:102990008CE087838BE080878AE0818789E082876B
:1029A000178681E0808B82E0818B83E0828B84E0DC
:1029B000838B0895CF93DF93CDB7DEB7C457D1098A
:1029C0000FB6F894DEBF0FBECDBF789484B5826099
:1029D00084BD84B5816084BD85B5826085BD85B5C3
:1029E000816085BD80916E00816080936E00109241
:1029F00081008091810082608093810080918100BC
:102A0000816080938100809180008160809380004C
:102A10008091B10084608093B1008091B0008160AA
:102A20008093B00080917A00846080937A008091D6
:102A30007A00826080937A0080917A00816080932E
:102A40007A0080917A00806880937A001092C100A9
:102A5000E091F802F091F90282E08083E091F402C3
:102A6000F091F5021082E091F602F091F70280E118
:102A7000808310920003E091FC02F091FD0286E059
:102A80008083E091FA02F091FB0280818061808373
:102A9000E091FA02F091FB02808188608083E091EE
:102AA000FA02F091FB02808180688083E091FA0253
:102AB000F091FB0280818F7D80830E94F8078CE07B
:102AC0008093B8009AE8E92E91E0F92E2DE8C22E05
:102AD00021E0D22E3BECA32E37E0B32ED7011D917F
:102AE0007D01812F0E94180190E080E00E946C0A15
:102AF00080E390E00E946C0A0E943008812F0E94BF
:102B000018018EEF90E00E946C0A83E090E00E9432
:102B10006C0A0E943008812F0E94180190E080E02A
:102B20000E946C0A80E290E00E946C0A0E943008C9
:102B3000C5010197F1F7812F0E94180181E090E013
:102B40000E946C0A84E090E00E946C0A0E943008A7
:102B5000CE14DF0419F609E412E0AEE08A2EA2E0FA
:102B60009A2EBDEAEB2EB3E0FB2E580188E0C82E6A
:102B700082E0D82EF60111926F01D5011D925D0100
:102B800040E050E064E373E4C7010E94E40540E0E4
:102B900050E068E473E4C7010E94DD0FB4E4EB0E7B
:102BA000F11C8C149D0431F7BE016C5C7F4F80E0FA
:102BB0000E94A20FF82EBE016F5F7F4F81E00E943E
:102BC000A20FF11089C1FE01811113C280930E0280
:102BD000F12CD8016D918D018F2D0E944E0BF39435
:102BE000B6E0FB12F6CF8091AB038F3F09F4ABC088
:102BF0000E94F8071092AC030E94F8078091AC0382
:102C000080620E94180180E00E94710A8FEF0E948A
:102C1000710A0E9430088091AC0380620E94180102
:102C200081E00E94710A8FEF0E94710A0E943008B1
:102C300041E068E08CEA93E00E94180D41E066E014
:102C40008CEA93E00E94180D41E067E08CEA93E083
:102C50000E94180D87E00E94F80C6091960366238D
:102C600029F041E08CEA93E00E945A0D41E0609126
:102C700095038CEA93E00E945A0D41E0609197031E
:102C80008CEA93E00E945A0DE8E9EE2EE3E0FE2E76
:102C900001E913E0FCE9CF2EF3E0DF2EF7016191AB
:102CA0007F0141E08CEA93E00E945A0DCE14DF04CC
:102CB000A9F776E9C72E73E0D72E40E0D8011F961A
:102CC0006C918CEA93E00E945A0DF801F784FFE0C2
:102CD000FF1598F127E05CE0E52E2F1520F438EF82
:102CE000F30E6DE0E62E8091AC0380620E94180125
:102CF0008E2D0E94710A0E9430088091AC03806280
:102D000061E070E090E00E94980C85E893E00E94FA
:102D1000F609B82E8091AC0380620E9418018E2DB6
:102D20000E94710A81E090E001C0880FFA94EAF7EE
:102D30008B290E94710A0E9430080F5F1F4FC01636
:102D4000D10609F0BACF8091A50388608093A503CE
:102D500082E08093A9031092AA038BE39DE0019780
:102D6000F1F740E06091950381E993E00E94E80C5F
:102D700040E06091970381E993E00E94E80C609144
:102D800096036F3F29F040E081E993E00E94E80C50
:102D90008091A50384FD31C163E081E993E00E9445
:102DA000770D0BE416E4C8010197F1F763E081E9C0
:102DB00093E00E94770DC8010197F1F763E081E984
:102DC00093E00E94770D83E592E00197F1F762E0CE
:102DD00081E993E00E94770D8091A50380620E94B3
:102DE000AF0E84E08093A6038CE00E94AF0E81E0DA
:102DF0000E94AF0E0BE31FE1C8010197F1F782E0DB
:102E00008093A70386E00E94AF0E81E00E94AF0E80
:102E1000C8010197F1F787E00E94F80C64EA70E0BE
:102E200081E993E00E94ED0181E00E94B50E80915E
:102E30000E0262E970E0811102C060E870E081E991
:102E400093E00E94ED018CE08093B80060E08EE09A
:102E50000E94850160E08FE00E9485010E94780F4A
:102E600044E4342E88EE92E00E946F02892B09F42C
:102E7000F4C488EE92E00E944D028D3099F3E09107
:102E800010028A3009F0DDC4AE2FB0E0AF5EBD4F56
:102E90001C92EE2309F4C9C081E192E0DC01EC91BF
:102EA0000196E032D9F38FE98E0F8A3108F0BBC06A
:102EB000E0521196AE014F5F5F4F80E0EC3409F0B5
:102EC000E3C07D019D919032E1F39111B1C08FE794
:102ED00091E00E94690FA9C02EA93FA9882309F497
:102EE00086C08B819C81281B390BFE0112161306AC
:102EF0000CF07FC0F49682819381909307028093B7
:102F0000060280A59FEF980F923028F0843019F0C8
:102F1000883009F082E08093080191A591116BC07F
:102F200091E0833008F490E090934F0222A533A5FE
:102F3000309307012093060124A535A530930501A0
:102F40002093040126A537A53093030120930201A5
:102F500020A931A93093010120930001880F880F27
:102F600081509F012C5F3F4F6F014CE1C40ED11C7B
:102F7000760149E452E068E072E0ADEAB3E0F901BD
:102F800081909190A190B1909F0150968D929D92C9
:102F9000AD92BC92539754968D929D92AD92BC92F5
:102FA0005797D4961D921D921D921C92D7971396F7
:102FB0001D921D921D921C92169758961D921D925D
:102FC0001D921C925B97F60191916F019823FB0172
:102FD0009193BF01F60195819F70FA019193AF0122
:102FE000AC5BBF4FE216F30651F681E0EFCDFE0178
:102FF00081CF319680CF91E097CF80620E94AF0E53
:103000008BE496E40197F1F78091A50380620E941A
:10301000AF0E83E592E00197F1F78091A5038062FE
:103020000E94AF0ED9CEE11144CF109210021ACFF8
:1030300081E0913309F080E0D70111969C919032A4
:1030400099F0BFEFEB1AFB0A0E94B50E10E0D70112
:103050006D917D01662361F0103199F081E993E073
:103060000E94E30E1F5FF3CFE2E0EE0EF11CECCF07
:10307000103139F060E281E993E00E94E30E1F5FB6
:10308000F7CF8CE791E025CF9C919923D1F0863042
:1030900009F4BBC59D019D919032E1F3992309F498
:1030A00093C58F5FDA012D933D93AD01D9019C91BA
:1030B0002F5F3F4F992341F39032C1F71C92D90102
:1030C000E3CFE354E63108F0B9C30E2E000CFF0B3A
:1030D000E459F74E0C949C21631A8C1A1E1C1E1C7A
:1030E0007C1A1E1C1E1C1E1C1E1C1E1C1E1C1E1CB4
:1030F0001E1C1E1C8518C81BF31933191E1C8218B0
:103100001E1C251A0E94780F90CF67ED70E088EEA4
:1031100092E00E94ED013DEAE32E33E0F32E10E051
:103120002091080130E050E040E0F70160897189AA
:10313000828993890E947D21CA01B9010E94370FBB
:10314000153019F08CE20E94FE021F5FF4E4EF0ECE
:10315000F11C163029F763ED70E088EE92E00E94D2
:10316000ED010E948F0A682F70E090E080E04AE055
:103170000E94E90E6FEC70E088EE92E00E94ED0193
:103180006091580270E090E080E04AE00E94E90E11
:103190006BEC70E088EE92E00E94ED0160916102BC
:1031A0007091620280916302909164024AE00E94F1
:1031B000E90E67EC70E088EE92E00E94ED0160910C
:1031C0005F0270916002072E000C880B990B0E9421
:1031D000370F63EC70E088EE92E00E94ED016091A1
:1031E0005D0270915E02072E000C880B990B0E9405
:1031F000370F6FEB70E088EE92E00E94ED01609176
:103200000E0270E090E080E00E94370F6BEB70E000
:1032100088EE92E00E94ED0160910F0270E090E074
:1032200080E00E94370F67EB70E088EE92E00E942A
:10323000ED016091080170E090E080E04AE00E94BA
:10324000E90E63EB70E088EE92E00E94ED01609180
:103250004F0270E090E080E00E94370F0E94610F03
:1032600010925802E2CE853018F483E791E031CE17
:1032700089819A810E94860F082F89E691E007FDD7
:1032800028CE8D819E810E944C1ED62EE72EF82ED0
:10329000192F8F8198850E944C1E4D2C5E2C6F2C0F
:1032A000712E141415041604170424F0412C512C0B
:1032B000320143944B015C01181419041A041B04D5
:1032C00024F0812C912C54018394A0910801EA2EC2
:1032D000F12CD701A30192010E94A9216D30734006
:1032E000810591054CF08CE093E0B7010E944721E5
:1032F0002B01770F66087708C02E002E000CDD0822
:10330000332D03028001112403551C4FC301B20168
:103310000E94BA1F2B013C01B701FF0C880B990BCF
:103320000E94BA1F9B01AC01C301B2010E946F2031
:10333000AB01BC01C8010E94E4056091080170E086
:1033400090E080E00E94BA1F2B013C01C501B4014E
:103350000E94BA1F9B01AC01C301B2010E946F2001
:103360004B015C0120E030E0A9010E940B1F882383
:1033700029F0B501A401C8010E94DD0F89859A8555
:103380000E944C1EF601E75BFD4F6F706083109248
:103390000F028B819C810E944C1E9B01AC01A0916D
:1033A0000801B0E00E94A9213C9CF0013D9CF00D79
:1033B0001124E355FC4FC488D588E688F7886C153E
:1033C0007D058E059F0561F0648B758B868B978BD1
:1033D0000190F081E02D0084F185E02DC801099570
:1033E00086E691E076CD811103C08DE591E071CD47
:1033F00089819A810E94860F8E3F19F483E591E0BE
:1034000068CD8F3FD9F48DEA93E00E94240381EFC9
:1034100093E00E94240385E394E00E94240389E75B
:1034200094E00E9424038DEB94E00E94240381E049
:1034300095E00E94240380E591E04BCD432D84026A
:10344000C001112483559C4FF4CF823018F487E4D7
:1034500091E03FCD89819A810E94860F182F8DE3DC
:1034600091E017FD36CD8B819C810E944C1E9B0103
:10347000AC01A0910801B0E00E94A921532D1503D1
:10348000F0011124E355FC4F608B718B828B938B81
:10349000648B758B868B978B14AA15AA16AA17AA0C
:1034A0001382148215821682108E118E128E138E44
:1034B00061E060930E028091090187FD0E948811EE
:1034C0008AE391E006CD823018F481E391E001CDEA
:1034D00089819A810E94860F182F87E291E017FD5B
:1034E000F8CC8B819C810E944C1E6F70812F0E94B2
:1034F0004E0B84E291E0EDCC811103C08BE191E0B1
:10350000E8CC89819A810E944C1E862F87700E9488
:10351000F80C88E191E0DDCC863019F08FE091E085
:10352000D8CC89819A810E944C1E6B017C018B81D1
:103530009C810E944C1E2B013C01D701C6010197C2
:10354000A109B1090297A105B10508F485C374E08A
:10355000C716D104E104F10409F478C388E0C81661
:10356000D104E104F10409F471C386E091E0B1CC27
:1035700080900801282D2695822F90E091958195C5
:103580009109AC01990F660B770BE5964CAF5DAFD7
:103590006EAF7FAFE597622F70E090E080E0AD9670
:1035A0006CAF7DAF8EAF9FAFAD97912CB12CA12C9E
:1035B0002C2C220C220C2A9488E092E0A9969FAF32
:1035C0008EAFA9970DEA13E0D80150962D913D9149
:1035D0004D915C915397E1962CAF3DAF4EAF5FAFED
:1035E000E197A7019601E1966CAD7DAD8EAD9FADE3
:1035F000E1970E943721E1962CAD3DAD4EAD5FAD18
:10360000E19757FFA6C0E5962CAD3DAD4EAD5FAD41
:10361000E597620F731F841F951FA50194010E94F7
:103620007D21D80150962D933D934D935C935397F4
:10363000F801248B358B468B578BD4961D921D92A7
:103640001D921C92D7971382148215821682589667
:103650001D921D921D921C925B97A996EEADFFAD37
:10366000A997A081B0E0A70196010E94A921AD967B
:103670002CAD3DAD4EAD5FADAD97620F731F841F96
:10368000951FA50194010E947D212221A996AEAD2E
:10369000BFADA9972D93A996BFAFAEAFA9970C5B0D
:1036A0001F4FB5E005341B0709F08ECFC09208010B
:1036B00081E045284628472809F480E080934F029E
:1036C0008D819E810E944C1E97FD4AC0693BEBE0B4
:1036D0007E07810591050CF046C070930701609349
:1036E00006018F8198850E944C1E16161706180633
:1036F0001906E4F56136FAEE7F0781059105CCF5F0
:10370000709305016093040189859A850E944C1E7F
:1037100097FD32C061362AEE7207810591057CF56E
:1037200070930301609302018B859C850E944C1E5F
:1037300097FD28C061363AEE7307810591052CF597
:1037400070930101609300010E9488118AEF90E05C
:10375000C0CBAD962CAD3DAD4EAD5FADAD9759CF65
:1037600070E060E0BACF68EB7BE0B7CF61E070E07B
:10377000C7CF60E67AEEC4CF70E060E0D1CF60E6FC
:103780007AEECECF70E060E0DBCF60E67AEED8CFA5
:10379000823018F481EF90E09CCB89819A810E945D
:1037A0004C1E4B015C018B819C810E944C1E6B0165
:1037B0007C01B7FC40C0DC01CB010197A109B10934
:1037C0004097A105B105B8F5D501C4018C0D9D1D2B
:1037D000AE1DBF1D81309440A105B10564F56EEEAC
:1037E00070E088EE92E00E94ED01C501B4010E94F4
:1037F000370F8601F12CE12CC701880D991D0E941D
:10380000881ED82E80E20E94FE025FE05D1518F04F
:1038100080E30E94FE026D2D70E090E080E040E1C8
:103820000E94E90E6FEFE61AF60AE016F10621F79C
:103830000E94610FFACB84EE90E04BCB8CED90E0D0
:1038400048CBE73308F0F1CB91E09E0F9093100244
:10385000F0E0EF5EFD4F808305CB8FB7F89480904A
:103860006A0290906B02A0906C02B0906D028FBFC4
:103870008091650290916602A0916702B091680202
:10388000A5019401281B390B4A0B5B0BDA01C90116
:10389000883E9340A105B105E8F1809265029092BF
:1038A0006602A0926702B0926802809161029091D4
:1038B0006202A0916302B09164020196A11DB11D44
:1038C0008093610290936202A0936302B0936402BA
:1038D0008EE00E94B6019093600280935F02BC016B
:1038E000990F880B990B0E94BA1F2CE735ED4AE41B
:1038F0005CE30E946F2060930A0170930B01809338
:103900000C0190930D018FE00E94B60190935E022E
:1039100080935D028091590290915A02A0915B02BE
:10392000B0915C02B501A401481B590B6A0B7B0BDB
:10393000DB01CA01C297A105B105D8F080925902F6
:1039400090925A02A0925B02B0925C0280E20E94C6
:10395000180162E185E893E00E943D0A0E94300868
:10396000882309F4F1C080E090915802892B80935C
:1039700058028091090187FF17C0EDEAF3E010E0DB
:10398000448955896689778980899189A289B38913
:10399000481759076A077B0709F4FEC00E94EB0A23
:1039A0008111E4C00E94C20AF0900901F7FCBFC077
:1039B0008091540290915502A0915602B091570205
:1039C000A5019401281B390B4A0B5B0BDA01C901D5
:1039D0004497A105B10570F080925402909255026F
:1039E000A0925602B09257020E94EB0A811102C0C7
:1039F0000E94C20A80914F028823F9F08091500200
:103A000090915102A0915202B0915302B501A401CC
:103A1000481B590B6A0B7B0BDB01CA010A97A105F6
:103A2000B10558F08092500290925102A092520239
:103A3000B09253028F2D0E946410CF2C0F2C000CDB
:103A4000DD085F2D64E456028001112403551C4FEC
:103A5000D80154964D915D916D917C9157975096F8
:103A60008D919D910D90BC91A02D481759076A0723
:103A70007B0709F49CC0F80183819481A581B681FC
:103A8000892B8A2B8B2B09F452C00E94C8014B0151
:103A90005C01F80180A591A5A2A5B3A5B501A4017B
:103AA000481B590B6A0B7B0B83819481A581B681DE
:103AB000481759076A077B07D0F180899189A28945
:103AC000B3892281222309F46EC00196A11DB11D84
:103AD000808B918BA28BB38B84E4FF2DF802800145
:103AE000112403551C4F8C9D90018D9D300D112488
:103AF000A90143555C4F7A01DA0150964D915D91D1
:103B00006D917C915397ED91FC910484F585E02DA6
:103B1000C8010995F70180A691A6A2A6B3A60190B7
:103B2000F081E02D0084F185E02DC801099520E0A9
:103B300030E0232B09F494C90E947B02882309F406
:103B40008FC90E9400008CC961E080E20E941709C1
:103B50001092770280937602813009F004CF85E8D5
:103B600093E00E94F60980958F71FECE10930901B3
:103B70008092540290925502A0925602B09257023F
:103B80008092500290925102A0925202B09253023F
:103B9000812F0E94641008CF1F5FEC5BFF4F16302F
:103BA00009F0EECE01CF0197A109B10991CFF6013D
:103BB000E75BFD4F60818F2D0E944E0B8FEF80934E
:103BC00009010E948811B3CFE354E63108F036CEE4
:103BD0000E2E000CFF0BE151F24E0C949C21631A47
:103BE0008E1A1E1C1E1C7C1A1E1C1E1C1E1C1E1C3B
:103BF0001E1C1E1C1E1C1E1C1E1C8518C81BF31917
:103C000033191E1C82181E1C251AE354E63108F0D5
:103C100015CE0E2E000CFF0BE05FF14E0C949C2194
:103C2000681A911A1E1C1E1C811A1E1C1E1C1E1CAA
:103C30001E1C1E1C1E1C1E1C1E1C1E1C8518CD1BA3
:103C4000F81938191E1C82181E1C2A1A4114510416
:103C50006104710409F489CC8091090187FF05C0D2
:103C60000E948F0A882309F483CC8DEF90E031C93C
:103C7000CF93DF93C5E4D5E0C454D109E881F9813D
:103C80000480F581E02DCE01099583E0CD3AD80777
:103C900099F7DF91CF9108951F93FC019927882709
:103CA000BC01E89411911032E9F3193010F01E3084
:103CB000C8F31B3251F01D3249F4689406C00E94CB
:103CC000731E610F711D811D911D119110531A30CA
:103CD000B0F33EF490958095709561957F4F8F4F2E
:103CE0009F4F1F910895592F482F372F262F660F6A
:103CF000771F881F991F660F771F881F991F620FF4
:103D0000731F841F951F660F771F881F991F0895C3
:103D1000F999FECF92BD81BDF89A992780B5089593
:103D2000262FF999FECF1FBA92BD81BD20BD0FB6D7
:103D3000F894FA9AF99A0FBE019608955058BB2745
:103D4000AA270E94B61E0C9430200E94222038F030
:103D50000E94292020F039F49F3F19F426F40C9496
:103D60001F200EF4E095E7FB0C941920E92F0E9428
:103D7000412058F3BA17620773078407950720F0AC
:103D800079F4A6F50C9463200EF4E0950B2EBA2F6F
:103D9000A02D0B01B90190010C01CA01A001112451
:103DA000FF27591B99F0593F50F4503E68F11A16FD
:103DB000F040A22F232F342F4427585FF3CF46958E
:103DC00037952795A795F0405395C9F77EF41F16B0
:103DD000BA0B620B730B840BBAF09150A1F0FF0F7A
:103DE000BB1F661F771F881FC2F70EC0BA0F621F66
:103DF000731F841F48F4879577956795B795F79556
:103E00009E3F08F0B0CF9395880F08F09927EE0FEA
:103E10009795879508950E94F51F08F481E008950D
:103E20000E94241F0C9430200E94292058F00E94E8
:103E3000222040F029F45F3F29F00C941920511101
:103E40000C9464200C941F200E94412068F3992355
:103E5000B1F3552391F3951B550BBB27AA27621786
:103E60007307840738F09F5F5F4F220F331F441F93
:103E7000AA1FA9F335D00E2E3AF0E0E832D09150C7
:103E80005040E695001CCAF72BD0FE2F29D0660FB4
:103E9000771F881FBB1F261737074807AB07B0E8F7
:103EA00009F0BB0B802DBF01FF2793585F4F3AF0FD
:103EB0009E3F510578F00C9419200C9464205F3FCC
:103EC000E4F3983ED4F3869577956795B795F79583
:103ED0009F5FC9F7880F911D9695879597F908956B
:103EE000E1E0660F771F881FBB1F62177307840707
:103EF000BA0720F0621B730B840BBA0BEE1F88F716
:103F0000E09508950E94891F6894B1110C94642073
:103F100008950E94492088F09F5798F0B92F99275B
:103F2000B751B0F0E1F0660F771F881F991F1AF0A4
:103F3000BA95C9F714C0B13091F00E946320B1E086
:103F400008950C946320672F782F8827B85F39F085
:103F5000B93FCCF3869577956795B395D9F73EF43D
:103F600090958095709561957F4F8F4F9F4F0895E5
:103F7000E89409C097FB3EF4909580957095619503
:103F80007F4F8F4F9F4F9923A9F0F92F96E9BB27B9
:103F90009395F695879577956795B795F111F8CF35
:103FA000FAF4BB0F11F460FF1BC06F5F7F4F8F4FA0
:103FB0009F4F16C0882311F096E911C0772321F096
:103FC0009EE8872F762F05C0662371F096E8862F2E
:103FD00070E060E02AF09A95660F771F881FDAF785
:103FE000880F9695879597F90895990F0008550FB2
:103FF000AA0BE0E8FEEF16161706E807F907C0F06F
:1040000012161306E407F50798F0621B730B840B76
:10401000950B39F40A2661F0232B242B252B21F450
:1040200008950A2609F4A140A6958FEF811D811DF0
:10403000089597F99F6780E870E060E008959FEF2A
:1040400080EC089500240A9416161706180609062F
:10405000089500240A9412161306140605060895FE
:10406000092E0394000C11F4882352F0BB0F40F486
:10407000BF2B11F460FF04C06F5F7F4F8F4F9F4FC6
:10408000089557FD9058440F551F59F05F3F71F048
:104090004795880F97FB991F61F09F3F79F08795AF
:1040A0000895121613061406551FF2CF4695F1DF38
:1040B00008C0161617061806991FF1CF86957105C8
:1040C000610508940895E894BB2766277727CB01FC
:1040D00097F908950E94F51F08F48FEF08950E9444
:1040E00082200C9430200E94222038F00E94292047
:1040F00020F0952311F00C9419200C941F2011240A
:104100000C9464200E94412070F3959FC1F3950F99
:1041100050E0551F629FF001729FBB27F00DB11D4B
:10412000639FAA27F00DB11DAA1F649F6627B00DDB
:10413000A11D661F829F2227B00DA11D621F739FC4
:10414000B00DA11D621F839FA00D611D221F749FD2
:104150003327A00D611D231F849F600D211D822F19
:10416000762F6A2F11249F5750409AF0F1F0882340
:104170004AF0EE0FFF1FBB1F661F771F881F91506D
:104180005040A9F79E3F510580F00C9419200C94E3
:1041900064205F3FE4F3983ED4F386957795679566
:1041A000B795F795E7959F5FC1F7FE2B880F911D97
:1041B0009695879597F9089519F416F40C941F2095
:1041C0000C9422210E944920B8F39923C9F3B6F335
:1041D0009F57550B87FF0E9430210024A0E640EA3C
:1041E000900180585695979528F4805C660F771F4C
:1041F000881F20F026173707480730F4621B730B1F
:10420000840B202931294A2BA69517940794202541
:1042100031254A2758F7660F771F881F20F0261789
:104220003707480730F4620B730B840B200D311DE8
:10423000411DA09581F7B901842F9158880F96955B
:10424000879508959F3F31F0915020F48795779599
:104250006795B795880F911D9695879597F908955D
:1042600091505040660F771F881FD2F70895DB01E9
:104270008F939F930E94A921BF91AF91A29F800D20
:10428000911DA39F900DB29F900D1124089597FB4F
:10429000072E16F4009407D077FD09D00E94B421B0
:1042A00007FC05D03EF4909581959F4F0895709539
:1042B00061957F4F0895A1E21A2EAA1BBB1BFD0139
:1042C0000DC0AA1FBB1FEE1FFF1FA217B307E407F5
:1042D000F50720F0A21BB30BE40BF50B661F771F4D
:1042E000881F991F1A9469F760957095809590952D
:1042F0009B01AC01BD01CF010895052E97FB1EF473
:1043000000940E94942157FD07D00E945B2107FC76
:1043100003D04EF40C9494215095409530952195FE
:104320003F4F4F4F5F4F08959095809570956195E1
:104330007F4F8F4F9F4F0895EE0FFF1F0590F49111
:10434000E02D09940E94C821B7FF0895821B930BAA
:1043500008950E94C821A59F900DB49F900DA49F21
:10436000800D911D11240895AA1BBB1B51E107C0AC
:10437000AA1FBB1FA617B70710F0A61BB70B881FF5
:10438000991F5A95A9F780959095BC01CD01089584
:10439000A29FB001B39FC001A39F700D811D112486
:1043A000911DB29F700D811D1124911D08950F93D1
:1043B0001F93CF93DF938230910510F482E090E059
:1043C000E0914705F091480530E020E0B0E0A0E042
:1043D000309799F42115310509F44AC0281B390B8F
:1043E00024303105D8F58A819B816115710589F1E9
:1043F000FB0193838283FE0111C0408151810281C0
:10440000138148175907E0F04817590799F4109796
:1044100061F012960C93129713961C933296CF016B
:10442000DF91CF911F910F9108950093470510934D
:104430004805F4CF2115310551F04217530738F0E4
:10444000A901DB019A01BD01DF01F801C1CFEF0134
:10445000F9CF9093480580934705CDCFFE01E20F39
:10446000F31F819391932250310939832883D7CF49
:104470002091450530914605232B41F420911001F0
:1044800030911101309346052093450520910E018E
:1044900030910F012115310541F42DB73EB7409100
:1044A000120150911301241B350BE0914505F09149
:1044B0004605E217F307A0F42E1B3F0B2817390718
:1044C00078F0AC014E5F5F4F2417350748F04E0F70
:1044D0005F1F5093460540934505819391939FCF6D
:1044E000F0E0E0E09CCFCF93DF930097E9F0FC0190
:1044F000329713821282A0914705B0914805ED01D1
:1045000030E020E01097A1F420813181820F931FC9
:1045100020914505309146052817390709F061C0FB
:10452000F0934605E0934505DF91CF910895EA01A8
:10453000CE17DF07E8F54A815B819E0141155105E1
:10454000B1F7E901FB83EA8349915991C40FD51F63
:10455000EC17FD0761F4808191810296840F951F0D
:10456000E90199838883828193819B838A83F0E028
:10457000E0E012968D919C9113970097B9F52D91DB
:104580003C911197CD010296820F931F2091450512
:10459000309146052817390739F6309751F51092B2
:1045A000480510924705B0934605A0934505BCCF3A
:1045B000D383C28340815181840F951FC817D907C7
:1045C00061F44E5F5F4F88819981480F591F518375
:1045D00040838A819B81938382832115310509F071
:1045E000B0CFF0934805E09347059ECFFD01DC0175
:1045F000C0CF13821282D7CF10E0CDEED0E004C03E
:10460000FE010E949C212196CE3ED107C9F7F89465
:02461000FFCFDA
:10461200780A3E019803B00402FF00004041000006
:104622004905800000004000140054000903C30241
:104632002C027F01C30000003DFF81FED4FD3DFD41
:10464200C1FC64FC2BFC18FC2BFC64FCC1FC3DFD92
:10465200D4FD81FE3DFF0000C3007F012C02C30296
:104662003F039C03D503E803D5039C033F030604E1
:10467200050109080A020605090A000000000504EE
:10468200D103970C2D125A066605A40550051E0586
:10469200FD04C904A804520423047C7D7E000000AA
:1046A20000B10211023E0203036F024D02610200D9
:1046B2000000003D0A100A8C0AE609090AF609E719
:1046C2000900000000E30E11028C0A23030D0A0008
:00000001FF
