:100000000C94DB000C9403010C9403010C94030189
:100010000C9403010C9403010C9403010C94030150
:100020000C9403010C9403010C9403010C94030140
:100030000C9403010C9403010C9403010C94030130
:100040000C94C30F0C9403010C9433100C940D10FA
:100050000C9403010C9403010C9403010C94030110
:100060000C9465100C94030156204155544F53488D
:100070004144452D44554D4220332E33204E3D0002
:1000800076332E33206E6F20736176656420706F37
:10009000730076332E3320706F7320726573746F24
:1000A000726564004155544F53484144452D4455B1
:1000B0004D420020463D0020453D0020423D0020AD
:1000C000413D0020553D00204B3D00204D3D00515D
:1000D00020503D0045525220636D6400522000457F
:1000E00052522072616E67650045525220617267FC
:1000F00073004F4B004552522061726773004F4BA3
:1001000000455252206D6F746F720045525220614B
:10011000726773004F4B00455252206D6F746F72BF
:10012000004552522061726773004F4B0045525296
:10013000206D6F746F7200455252206172677300B8
:100140004F4B00455252206D6F746F7200455252F2
:100150002061726773004F4B0045525220617267F5
:10016000730000000000240027002A0000000000A7
:10017000250028002B0004040404040404040202E3
:100180000202020203030303030301020408102016
:100190004080010204081020010204081020000021
:1001A0000008000201000003040700000000000036
:1001B0000000E411C51911241FBECFEFD8E0DEBF47
:1001C000CDBF11E0A0E0B1E0EAE7FCE302C005909A
:1001D0000D92A037B107D9F724E0A0E7B1E001C044
:1001E0001D92A23FB207E1F710E0CAEDD0E004C0D3
:1001F0002197FE010E94051DC93DD107C9F70E9444
:100200006E120C94301E0C94000091E090936D02DD
:1002100080938F0210926E02109290020895FC015A
:1002200029E280E047E0215071F09191982738E071
:10023000892F880F97FF03C0990F892F842731508A
:10024000982FB1F7F0CF08950895089590E0FC013C
:10025000E256FE4F2491FC01E657FE4F3491FC011B
:10026000EA58FE4FE491EE23C9F0222339F02330FF
:1002700001F1A8F4213019F1223029F1F0E0EE0F5C
:10028000FF1FE459FE4FA591B4918FB7F894EC91FC
:10029000611126C030953E233C938FBF08952730CF
:1002A000A9F02830C9F0243049F7809180008F7D73
:1002B00003C0809180008F7780938000DFCF84B56A
:1002C0008F7784BDDBCF84B58F7DFBCF8091B0006D
:1002D0008F778093B000D2CF8091B0008F7DF9CF1F
:1002E0003E2BDACFCF93DF9390E0FC01E657FE4F31
:1002F00024918A589E4FFC0184918823D1F090E08C
:10030000880F991FFC01EE59FE4FA591B491FC0195
:10031000E459FE4FC591D49161110EC09FB7F89476
:100320008C91E22FE0958E238C932881E223E88341
:100330009FBFDF91CF9108958FB7F894EC91E22B96
:10034000EC938FBFF6CF8E50806480937C008091B9
:100350007A00806480937A0080917A0086FDFCCFD9
:10036000809178009091790008953FB7F89480913A
:10037000170290911802A0911902B0911A0226B5A5
:10038000A89B05C02F3F19F00196A11DB11D3FBFCD
:10039000BA2FA92F982F8827BC01CD01620F711D9C
:1003A000811D911D42E0660F771F881F991F4A9596
:1003B000D1F70895EF92FF920F931F93CF93DF939E
:1003C0008C017B01D0E0C0E0F701EC0FFD1F6491D0
:1003D000662361F0D801ED91FC910190F081E02D50
:1003E000C8010995892B11F02196EECFCE01DF913E
:1003F000CF911F910F91FF90EF900895AF92BF9210
:10040000CF92DF92EF92FF920F931F93CF93DF93E0
:100410006C017B018B01040F151FEB015E01AE180F
:10042000BF08C017D10759F06991D601ED91FC9131
:100430000190F081E02DC6010995892B79F7C5015E
:10044000DF91CF911F910F91FF90EF90DF90CF90B0
:10045000BF90AF900895FC01538D448D252F30E05F
:10046000842F90E0821B930B541710F0CF960895C1
:1004700001970895FC01918D828D981761F0A28DEE
:10048000AE0FBF2FB11D5D968C91928D9F5F9F73B4
:10049000928F90E008958FEF9FEF0895FC01918D6A
:1004A000828D981731F0828DE80FF11D858D90E0D7
:1004B00008958FEF9FEF0895FC01918D228D892F74
:1004C00090E0805C9F4F821B91098F73992708955C
:1004D00081E992E00E945C0221E0892B09F420E08E
:1004E000822F089580E090E0892B29F00E94680215
:1004F00081110C9400000895FC01A48DA80FB92F60
:10050000B11DA35ABF4F2C91848D90E001968F733B
:100510009927848FA689B7892C93A089B1898C915A
:10052000837080648C93938D848D981306C00288A9
:10053000F389E02D80818F7D80830895EF92FF9273
:100540000F931F93CF93DF93EC0181E0888F9B8DF6
:100550008C8D98131AC0E889F989808185FF15C0B0
:100560009FB7F894EE89FF896083E889F9898081D3
:100570008370806480839FBF81E090E0DF91CF91A2
:100580001F910F91FF90EF900895F62E0B8D10E0C4
:100590000F5F1F4F0F731127E02E8C8D8E110CC033
:1005A0000FB607FCFACFE889F989808185FFF5CF7E
:1005B000CE010E947C02F1CFEB8DEC0FFD2FF11DDF
:1005C000E35AFF4FF0829FB7F8940B8FEA89FB89BB
:1005D00080818062CFCF682F81E992E00C949E02E7
:1005E000CF93DF93EC01888D8823B9F0AA89BB896A
:1005F000E889F9898C9185FD03C0808186FD0DC055
:100600000FB607FCF7CF8C9185FFF2CF808185FF75
:10061000EDCFCE010E947C02E9CFDF91CF9108950A
:1006200008954F925F926F927F928F929F92AF92B6
:10063000BF92CF92DF92EF92FF92CF93DF9300D0E1
:1006400000D000D0CDB7DEB79E838D83DC015896F5
:100650008D909D90AD90BC905B9720E030E0A9011B
:10066000C501B4010E94981A882309F472C0A5013B
:100670009401C501B4010E94FC1B6B017C01ED815A
:10068000FE8160A171A182A193A19B01AC010E9496
:100690002C1A9B01AC01C701B6010E949D1A0E9451
:1006A0000F1B6B017C01AD81BE8150964D905D901A
:1006B0006D907C90539754968D919D910D90BC9127
:1006C000A02D89839A83AB83BC8320E030E0A9010D
:1006D000C501B4010E94F71B1816B4F5BFEFCB1A81
:1006E000DB0AEB0AFB0A4C0C5D1C6E1C7F1C89812B
:1006F0009A81AB81BC8184159505A605B70549F1A2
:10070000AD81BE8154964D925D926D927C925797C9
:10071000ED91FC9111970084F185E02DCD01269695
:100720000FB6F894DEBF0FBECDBFDF91CF91FF9023
:10073000EF90DF90CF90BF90AF909F908F907F9081
:100740006F905F904F900994C094D094E094F0948F
:10075000CACF26960FB6F894DEBF0FBECDBFDF918D
:10076000CF91FF90EF90DF90CF90BF90AF909F9090
:100770008F907F906F905F904F900895CF93DF930D
:10078000FC012781222359F1EC0161E080850E9460
:10079000720161E089850E9472018F81843011F0BD
:1007A0008830B1F461E08A850E94720161E08B8536
:1007B0000E9472018FA58F3F91F061E00E9472014B
:1007C0006EA581E068278FA5DF91CF910C9426015B
:1007D000833011F0863071F761E08A85E9CFDF91CF
:1007E000CF910895CF93DF93FC0127812223A9F0B5
:1007F000EC010190F081E02D0284F385E02D60E0B2
:1008000009958FA58F3F49F061E00E9472016EA5A6
:100810008FA5DF91CF910C942601DF91CF910895A0
:10082000DC01ED91FC9122853385477055276627C1
:100830007727415051096109710947305105610518
:10084000710560F4FA01E95DFB4F0C94051D31045C
:1008500033043504370439043B043D0461E0F901F5
:10086000099465E0FCCF64E0FACF66E0F8CF62E07F
:10087000F6CF6AE0F4CF68E0F2CF69E0F0CFCF9333
:10088000DF93EC01CB01BA0126E030E040E050E01C
:100890000E94E61C623071058105910589F16CF4B6
:1008A0006115710581059105D1F0613071058105F2
:1008B0009105F9F0DF91CF910895643071058105BC
:1008C000910561F124F1653071058105910591F77C
:1008D000E881F9810284F385E02D66E006C0E881B5
:1008E000F9810284F385E02D64E0CE01DF91CF91A0
:1008F0000994E881F9810284F385E02D65E0F5CF64
:10090000E881F9810284F385E02D61E0EECFE88192
:10091000F9810284F385E02D63E0E7CFE881F98176
:100920000284F385E02D62E0E0CFDC01ED91FC91E3
:100930000284F385E02D43705527662777274230E0
:1009400051056105710571F043305105610571056F
:1009500059F0413051056105710511F065E00994C8
:1009600066E0FDCF6AE0FBCF69E0F9CFCF93DF937C
:10097000EC01CB01BA0123E030E040E050E00E94FE
:10098000E61C613071058105910599F062307105B1
:1009900081059105A9F0672B682B692BC1F4E881CB
:1009A000F9810284F385E02D64E0CE01DF91CF91DF
:1009B0000994E881F9810284F385E02D61E0F5CFA7
:1009C000E881F9810284F385E02D62E0EECFDF91CA
:1009D000CF910895DC01ED91FC910284F385E02D27
:1009E0004370552766277727423051056105710509
:1009F00071F0433051056105710559F041305105E1
:100A00006105710511F062E0099463E0FDCF61E0DA
:100A1000FBCF60E0F9CFCF93DF93EC01E881F98160
:100A20000284F385E02D8A8160E0811162E0CE01CD
:100A30000995E881F9810284F385E02D8A8161E0DE
:100A4000811163E0CE0109958CA59DA582309105A9
:100A500038F0880F991F880F991F05970197F1F7B4
:100A6000E881F9810284F385E02D8A8160E08111BB
:100A700062E0CE01DF91CF910994CF93DF93EC0137
:100A800020E030E0A901688D798D8A8D9B8D0E94D0
:100A9000F71B18162CF4E8A9F9A9DF91CF91099456
:100AA000EAA9FBA9FACFCF92DF92EF92FF920F93C0
:100AB0001F93CF93DF93DC011796CC91C43039F0AC
:100AC000C83059F1C33019F0C63049F1C2E08C0189
:100AD000085F1F4FF12CE12CC62ED12CD1E0F8017C
:100AE0006481C6010E2C02C0959587950A94E2F7A1
:100AF00080FD6D270F5F1F4F80810E942601BFEF91
:100B0000EB1AFB0AEC1658F3DF91CF911F910F916E
:100B1000FF90EF90DF90CF900895C4E0D8CFC3E06E
:100B2000D6CFDC011796EC911797E93008F038C062
:100B3000F0E0E356FA4F0C94051DA605AC05B2058E
:100B4000B805BE05D005C405D005CA05ED91FC91D8
:100B50000684F785E02D0994ED91FC910088F189D8
:100B6000E02DF9CFED91FC910288F389E02DF3CFD0
:100B7000ED91FC910488F589E02DEDCFED91FC918C
:100B80000688F789E02DE7CFED91FC91008CF18D7F
:100B9000E02DE1CFED91FC91028CF38DE02DDBCFC8
:100BA0000895CF92DF92EF92FF920F931F93CF930E
:100BB000DF93EC016A017B0120E030E0A901CB0169
:100BC000B6010E94981A87FF04C0F7FAF094F7F86C
:100BD000F094A70196016C8D7D8D8E8D9F8D0E9466
:100BE000981A882309F44AC0CC8EDD8EEE8EFF8ED3
:100BF0008E01005C1F4FA701960160E074E284E75C
:100C000099E40E949D1AF801608371838283938323
:100C10008CA99DA9AEA9BFA9181619061A061B060C
:100C20006CF5688D798D8A8D9B8D9B01AC010E943E
:100C3000FC1B6B017C0168A179A18AA19BA19B018E
:100C4000AC010E942C1A9B01AC01C701B6010E94A5
:100C50009D1A0E940F1B6CAB7DAB8EAB9FABE881E6
:100C6000F9810084F185E02DCE01DF91CF911F91B4
:100C70000F91FF90EF90DF90CF900994DF91CF918B
:100C80001F910F91FF90EF90DF90CF9008954F92BA
:100C90005F926F927F928F929F92AF92BF92CF920C
:100CA000DF92EF92FF920F931F93CF93DF93EC01AC
:100CB000CC88DD88EE88FF8888899989AA89BB89D4
:100CC000C81AD90AEA0AFB0A688D798D8A8D9B8D2C
:100CD0009B01AC010E94FC1B4B015C0168A179A146
:100CE0008AA19BA19B01AC010E942C1A9B01AC0123
:100CF000C501B4010E949D1A0E940F1BC114D104AA
:100D0000E104F10409F0B6C0623071058105910576
:100D10000CF0D0C01B821C821D821E82188E198E80
:100D20001A8E1B8E1CAA1DAA1EAA1FAAC12CD12C6A
:100D30007601C701B601DF91CF911F910F91FF900E
:100D4000EF90DF90CF90BF90AF909F908F907F906B
:100D50006F905F904F9008951016110612061306BB
:100D6000B4F46C157D058E059F051CF42A812111B4
:100D7000A1C09B01AC0188279927DC01821B930B42
:100D8000A40BB50B8CAB9DABAEABBFAB93C0011549
:100D900011052105310509F48DC06C157D058E0501
:100DA0009F050CF087C08A81882309F483C03095A1
:100DB0002095109501951F4F2F4F3F4F0CAB1DAB4A
:100DC0002EAB3FAB77C0011511052105310509F4A4
:100DD00071C08824992454018C189D08AE08BF085E
:100DE000681579058A059B050CF064C08A8181111C
:100DF00061C0DDCFCCACDDACEEACFFACA7019601A1
:100E0000C701B6010E942C1A2B013C01C501B40197
:100E10000E94471B20E030E040E850E40E94FC1BA9
:100E200020E030E040E85FE30E942C1A9B01AC0117
:100E3000C301B2010E949D1A9B01AC01C701B6011A
:100E40000E942B1A3B016C01FE01E05CFF4FE08029
:100E5000F180028113819701A8010E94F71B1816E7
:100E600014F473018601C701D8018CAF9DAFAEAFFA
:100E7000BFAF3AC00CA91DA92EA93FA91C141D047F
:100E80001E041F040CF468CF101611061206130678
:100E90000CF099CF0027112798010C191D092E0974
:100EA0003F0960177107820793070CF062CF2A8110
:100EB00021115FCF8CA89DA8AEA8BFA88114910472
:100EC000A104B10409F096CF88AD99ADAAADBBAD30
:100ED0008CAF9DAFAEAFBFAF81E01C141D041E04EC
:100EE0001F040CF080E08A833FEF831A930AA30A61
:100EF000B30A8CAA9DAAAEAABFAA8CAC9DACAEAC1C
:100F0000BFACC501B4010E94161B6B017C01CB82F2
:100F1000DC82ED82FE82A501940160E074E284E748
:100F200099E40E949D1A688F798F8A8F9B8F2A81FE
:100F30002111FFCE9058688F798F8A8F9B8FF9CEC1
:100F400020919101260F3327331F21323105ECF414
:100F500020916702FC0190E080E0243069F082E09B
:100F60000895A09191012191AC014F585E4FA40FBB
:100F7000B52FB11D2C930196861798F3809191019E
:100F8000680F6093910180E0089581E008951092C8
:100F9000670281E0809366021092410261E082E183
:100FA0000E94260161E083E10E942601E9EBF0E066
:100FB00080818E7F808380818D7F808388E4809391
:100FC000B80085E48093BC0008951092200210922E
:100FD0001F0210926E02109290020E94C70784E2D4
:100FE00091E090931E0280931D0285E291E0909320
:100FF0001C0280931B020895CF93DF9391E090939E
:1010000070018823B9F0C091B800D091BA008091E6
:10101000BC008A7B8093BC0060E082E10E942601D4
:1010200060E083E10E9426010E94C707D093BA00C6
:10103000C093B800DF91CF910895CF92DF92EF92E5
:10104000FF920F931F93CF93DF93D091900281E093
:10105000D13208F09CC0C0918F020E94B5016B0193
:101060007C018091670281116CC082E080936702ED
:1010700081E0809366028FEF809365021092640294
:10108000D0936302AFE6B2E0E3E4F2E080E0D8138D
:101090008DC01092420280914202CC0FC82BC093A7
:1010A000420280914102813009F084C010924102D5
:1010B0000E94B5016B017C01809142028093BB00CC
:1010C0008091690290916A02A0916B02B0916C02CA
:1010D000892B8A2B8B2BA1F00E94B501009169020C
:1010E00010916A0220916B0230916C026C197D099B
:1010F0008E099F09061717072807390708F442C009
:101100008091BC0083FDD8CF85EC8093BC000E9409
:10111000B5016B017C0180916702823009F44CC0FB
:10112000809165028F3F09F469C080916502803229
:1011300009F466C080916502803309F463C084E0DD
:1011400026C08091690290916A02A0916B02B091D1
:101150006C02892B8A2B8B2B09F483CF0E94B5015B
:101160000091690210916A0220916B0230916C0229
:101170006C197D098E099F0906171707280739077B
:1011800008F06FCF809168020E94FC0785E0109202
:101190006E021092900210926D02DF91CF911F911A
:1011A0000F91FF90EF90DF90CF9008959D919193D4
:1011B0008F5F6DCF85EEA9CF8091690290916A0211
:1011C000A0916B02B0916C02892B8A2B8B2B09F4B6
:1011D000A2CF0E94B5010091690210916A0220918C
:1011E0006B0230916C026C197D098E099F090617FC
:1011F00017072807390708F08ECFC4CF80E0C7CF84
:1012000082E0C5CF83E0C3CFCF92DF92EF92FF920F
:101210000F931F93CF93DF93D82FC62F613208F01F
:1012200098C00E94B5016B017C0180916702811119
:101230006BC081E080936702809366029FEF90937A
:101240006502109264029C0F9093630280934202A5
:1012500080914202DD0FD82BD0934202809141024F
:10126000813009F078C0109241020E94B5016B01F3
:101270007C01809142028093BB0080916902909131
:101280006A02A0916B02B0916C02892B8A2B8B2B86
:10129000A1F00E94B5010091690210916A022091AB
:1012A0006B0230916C026C197D098E099F0906173B
:1012B00017072807390708F448C08091BC0083FD50
:1012C000D8CF85EC8093BC000E94B5016B017C01F6
:1012D00080916702813009F440C0809164028C17CC
:1012E00010F4C0916402E3E4F2E0A1E2B2E080E035
:1012F0008C1355C08C2FDF91CF911F910F91FF90D0
:10130000EF90DF90CF9008958091690290916A02EA
:10131000A0916B02B0916C02892B8A2B8B2B09F464
:1013200084CF0E94B5010091690210916A02209158
:101330006B0230916C026C197D098E099F090617AA
:1013400017072807390708F070CF809168020E94BC
:10135000FC07C0E0CFCF85EEB5CF809169029091B8
:101360006A02A0916B02B0916C02892B8A2B8B2BA5
:1013700009F4AECF0E94B5010091690210916A0292
:1013800020916B0230916C026C197D098E099F09C6
:10139000061717072807390708F09ACFD6CF91917B
:1013A0009D938F5FA5CF0895E091200280911F0249
:1013B000E81730F4F0E0EF5DFD4F808190E0089594
:1013C0008FEF9FEF08959091200280911F022FEFE1
:1013D0003FEF981748F4E92FF0E0EF5DFD4F2081D3
:1013E00030E09F5F90932002C901089580911F0211
:1013F00090912002891B990B0895CF92DF92EF9272
:10140000FF920F931F93CF93DF937C01CB018A014F
:1014100020916D02222389F0EB016B01C40ED51ED1
:10142000CC15DD0569F06991D701ED91FC91019032
:10143000F081E02DC7010995F3CF642F0E94A0072A
:10144000C801DF91CF911F910F91FF90EF90DF9036
:10145000CF900895CF93DF931F92CDB7DEB7698306
:1014600020916D022223F9F020919002203258F051
:1014700021E030E0FC013383228390E080E00F9094
:10148000DF91CF91089580916E02E82FF0E0E1594D
:10149000FD4F998190838F5F80936E0280939002BD
:1014A00081E090E0ECCF61E0CE0101960E94A007C0
:1014B000F7CF682F8EE293E00C942A0A682F8EE211
:1014C00093E00C942A0ACF93DF93D62FC72FFC0109
:1014D000808180620E94050182E10E945E0A8D2F58
:1014E0000E945E0A8C2F0E945E0ADF91CF910C94BD
:1014F0001D0890E080E00895E6E5F3E08089918999
:10150000A289B3894489558966897789481759071B
:101510006A077B0781F0848B958BA68BB78B14AA07
:1015200015AA16AA17AA1382148215821682108E83
:10153000118E128E138EEC5BFF4F84E0EE3EF807A7
:10154000E9F681E08093BD010895EF92FF920F9339
:101550001F93CF93DF93182FE62EE82FE695F0E048
:10156000E75CFE4F80810E9405011170C12F20E0D1
:10157000D22FC15FDE4F888124E0829FC0011124F9
:1015800006960E94590AD0E0C0E0F12C87010C2E8B
:1015900002C0159507950A94E2F70170112760E0E3
:1015A0008EE293E00E942A0A60E00115110509F01D
:1015B00060E18EE293E00E942A0A60E08EE293E00E
:1015C0000E942A0A60E1012B09F060E08EE293E0BC
:1015D0000E942A0A2196C430D105C1F6DF91CF912D
:1015E0001F910F91FF90EF900C941D08E62FA82FEC
:1015F000B0E0AA54BE4F6C91E60FE770EC93F0E0B8
:10160000EF5EFE4F60810C94A50A61E080E00C94CF
:10161000F60A6FEF80E00C94F60A61E081E00C942A
:10162000F60A6FEF81E00C94F60A61E082E00C9418
:10163000F60A6FEF82E00C94F60A61E083E00C9406
:10164000F60A6FEF83E00C94F60A61E084E00C94F4
:10165000F60A6FEF84E00C94F60A61E085E00C94E2
:10166000F60A6FEF85E00C94F60A08950E940409CB
:101670001092200280931F020895EF92FF920F9321
:101680001F93CF93DF938C01C62FE42E84E1F82EB5
:10169000D2E1683020F0C85095E1F92ED3E1F8018D
:1016A000808180620E9405018F2D0E945E0A0E9447
:1016B0001D08F8018081806261E070E090E00E9486
:1016C000360B8EE293E00E94E30921E030E001C096
:1016D000220FCA95EAF7F1E0C82FC22BEF1619F0D6
:1016E0002095C22FC823F801808180620E940501E5
:1016F0008D2F0E945E0A8C2F0E945E0ADF91CF918F
:101700001F910F91FF90EF900C941D08FC01962FF4
:10171000828D8F3F31F0603140F4CF014B960C94B5
:101720003D0B642F892F0C9426010895CF93DF93EE
:10173000C82FD1E082FB442740F94D2768E085E5BA
:1017400093E00E943D0BC1FB442740F94D2767E021
:1017500085E593E00E943D0B4C2F4095417066E07B
:1017600085E593E0DF91CF910C943D0BFF920F93B1
:101770001F93CF93DF938C01C62FF42ED0E06830F7
:1017800010F0C850D1E0F801808180620E9405010C
:101790008D2F0E945E0A0E941D08F80180818062E0
:1017A00061E070E090E00E94360B8EE293E00E94D0
:1017B000E30921E030E001C0220FCA95EAF7C82F03
:1017C000C22BFF2019F02095C22FC823F801808179
:1017D00080620E9405018D2F0E945E0A8C2F0E945C
:1017E0005E0ADF91CF911F910F91FF900C941D081D
:1017F000603110F40C94B60B0895CF93DF93EC0195
:1018000040E06E810E94860B41E06E81CE010E9415
:10181000860B40E06E81CE010E94860B8BE891E042
:101820000197F1F7DF91CF910895AF92BF92CF92D8
:10183000DF92EF92FF920F931F93CF93DF93EC0110
:101840008A8D8E01095F1F4FC62ED12C8F3F09F460
:1018500080C07E018BE1E80EF11C8B8D80620E94BE
:10186000050182E10E945E0A0E941D088B8D806244
:1018700062E070E090E00E94360B8EE293E00E94FE
:10188000E309B82E8EE293E00E94E30960E0782F2E
:10189000CB018B29F80130E020E001E010E041911C
:1018A000B801042E02C0660F771F0A94E2F7609514
:1018B000709586239723B601022E02C07595679511
:1018C0000A94E2F76170772702C0660F771F4A9586
:1018D000E2F7862B972B2F5F3F4F24303105F9F627
:1018E0002E81680102C0CC0CDD1C2A95E2F7C09461
:1018F000D094C822D922B601C7010E94630A8E8102
:10190000B80102C0660F771F8A95E2F7C62AD72A68
:10191000B601C7010E94630A8E81B80102C0660F3A
:10192000771F8A95E2F7609570956C217D21C7013C
:101930000E94630A8BE891E00197F1F7DF91CF9164
:101940001F910F91FF90EF90DF90CF90BF90AF90DD
:101950000895F12CE12C5E01EBE1AE0EB11CF80113
:1019600081918F019A8D9F3F39F141E0682FC50128
:101970000E94F80BA6010E2C02C0559547950A94BB
:10198000E2F74170F80131976081CE010E94860B29
:10199000FFEFEF1AFF0A84E0E816F10401F7CE0129
:1019A000DF91CF911F910F91FF90EF90DF90CF903B
:1019B000BF90AF900C94FD0B61E00E947201DACFF2
:1019C000AF92BF92CF92DF92EF92FF920F931F934D
:1019D000CF93DF93EC01F62E6C810E94860B6D8114
:1019E0006F3F21F040E0CE010E94860B0F2D10E0EA
:1019F0008C8984FF3BC06E0187E0C80ED11CF12C9E
:101A0000E12C5E01EBE1AE0EB11CF60181916F019C
:101A10009A8D9F3F39F141E0682FC5010E94F80B74
:101A2000A8010E2C02C0559547950A94E2F7417023
:101A3000F60131976081CE010E94860BFFEFEF1A0D
:101A4000FF0A88E0E816F10401F7CE01DF91CF919B
:101A50001F910F91FF90EF90DF90CF90BF90AF90CC
:101A60000C94FD0B61E00E947201DACFB80184E0B2
:101A7000759567958A95E1F7CE010E94150C6F2D3B
:101A8000CE01DF91CF911F910F91FF90EF90DF90EA
:101A9000CF90BF90AF900C94150C40E0682F8AE374
:101AA00093E00C94E00CCF93DF93CDB7DEB728978B
:101AB0000FB6F894DEBF0FBECDBF98E0E7E0F1E0CF
:101AC000DE01119601900D929A95E1F790915203E3
:101AD000981708F48FEF90E0880F991F21E030E00D
:101AE0002C0F3D1F820F931FFC0180818068289678
:101AF0000FB6F894DEBF0FBECDBFDF91CF910C942F
:101B00004D0D41E00E94E00C81E090E008958F923D
:101B10009F92AF92BF920F931F93CF93DF93CDB756
:101B2000DEB7A1970FB6F894DEBF0FBECDBF19A2E6
:101B3000423008F44AE08E010F5D1F4F842E912C35
:101B4000B12CA12CA50194010E94C41CE62FB9015F
:101B5000CA01EA3044F5E05DD801EE938D01232BF4
:101B6000242B252B79F790E080E0109769F0FD0198
:101B700001900020E9F73197AF014A1B5B0BBD01D3
:101B800081E992E00E94FE01A1960FB6F894DEBFB3
:101B90000FBECDBFDF91CF911F910F91BF90AF903E
:101BA0009F908F900895E95CD7CFCF92DF92EF920C
:101BB000FF92CF93DF9397FF19C06B017C018DE2F9
:101BC0000E94EB02EC0166277727CB016C197D0997
:101BD0008E099F094AE00E94870D8C0F9D1FDF919F
:101BE000CF91FF90EF90DF90CF9008954AE0DF9182
:101BF000CF91FF90EF90DF90CF900C94870D42E053
:101C000050E06CE671E081E992E00C94FE01CF9324
:101C1000DF93BC0181E992E00E94DA01EC010E94AD
:101C2000FF0D8C0F9D1FDF91CF91089568E670E046
:101C300081E992E00E94DA0166E070E080E090E0E5
:101C40000E94D50D0C94FF0D0F931F930E94D9197C
:101C5000611571058105910579F08B019C01015099
:101C60001109210931098FEF860F06301105210571
:101C7000310518F08EEF01C08FEF1F910F9108957D
:101C8000CF92DF92EF92FF920F931F93CF93DF9348
:101C90008B01C82FD0E0289686E0CC0FDD1F8A95F7
:101CA000E1F76B0129E2C20ED11C7B01C61BD70BE9
:101CB000CE018E0D9F1D0E94151AF70181937F01A1
:101CC000EC15FD05A9F7F8018081918184359A45CD
:101CD00039F4C8010E940F0191E0F80120A52813F2
:101CE00090E0892FDF91CF911F910F91FF90EF909E
:101CF000DF90CF9008954F925F926F927F928F9274
:101D00009F92AF92BF92CF92DF92EF92FF92CF93CA
:101D1000DF93EC016A017B0120E030E0A901CB01F7
:101D2000B6010E94981A87FF04C0F7FAF094F7F8FA
:101D3000F09488A099A0AAA0BBA0A7019601C50114
:101D4000B4010E94981A882309F44DC06CA97DA99A
:101D50008EA99FA90E94471B2B013C01A701960158
:101D6000C501B4010E949D1A9B01AC01C301B201DF
:101D70000E94FC1B0E940F1B6CAB7DAB8EAB9FAB1C
:101D8000A701960160E070E080E090E40E949D1A57
:101D90000E946F1C26E53EE04DE25FE30E94FC1BC3
:101DA00020E034E244E759E40E94FC1B68AF79AFBD
:101DB0008AAF9BAFC8A2D9A2EAA2FBA2E881F981AF
:101DC0000084F185E02DCE01DF91CF91FF90EF905F
:101DD000DF90CF90BF90AF909F908F907F906F904B
:101DE0005F904F900994DF91CF91FF90EF90DF903B
:101DF000CF90BF90AF909F908F907F906F905F90AB
:101E00004F90089585ED8093BC0080916902909178
:101E10006A02A0916B02B0916C020796A11DB11DE0
:101E200023E0B695A795979587952A95D1F72091A8
:101E3000BC0024FD03C0109267020895409169021E
:101E400050916A0260916B0270916C02452B462B97
:101E5000472B69F30097A105B10541F02AE22A95C5
:101E6000F1F700C00197A109B109E1CF80916802A3
:101E70000C94FC079F92AF92BF92CF92DF92EF92A9
:101E8000FF920F931F93CF93DF93CDB7DEB7A99740
:101E90000FB6F894DEBF0FBECDBF84E59AE59A83F6
:101EA00089830091B4011091B5010F5F1F4F10930A
:101EB000B5010093B4011C830B83E6E5F3E0AE01AA
:101EC0004B5F5F4F26EB31E05E016DE1A60EB11C6A
:101ED00087EF91E0C088D188E288F388DA01CD925B
:101EE000DD92ED92FD92AD01D9016D919D01D5017B
:101EF0006D935D01DC016D91CD01D50115966C935B
:101F0000EC5BFF4FB4E0EE3EFB0721F7CE010196FC
:101F10000E940F0189A701701127085F1F4F86E0FB
:101F2000000F111F8A95E1F7FE0131967F01D12C38
:101F3000C12CD7019D907D015601A00EB11EC50197
:101F40000E94151A981621F0692DC5010E941D1ACC
:101F5000BFEFCB1ADB0AE9E2CE16D10451F7A996FE
:101F60000FB6F894DEBF0FBECDBFDF91CF911F91AA
:101F70000F91FF90EF90DF90CF90BF90AF909F9028
:101F800008950C94A71D1F920F920FB60F92112463
:101F90002F933F938F939F93AF93BF93809113029F
:101FA00090911402A0911502B09116023091120284
:101FB00023E0230F2D3758F50196A11DB11D209365
:101FC00012028093130290931402A0931502B0930F
:101FD00016028091170290911802A0911902B091F7
:101FE0001A020196A11DB11D809317029093180249
:101FF000A0931902B0931A02BF91AF919F918F9154
:102000003F912F910F900FBE0F901F90189526E8CB
:10201000230F0296A11DB11DD2CF1F920F920FB6B2
:102020000F9211242F933F934F935F936F937F935E
:102030008F939F93AF93BF93EF93FF9381E992E0C8
:102040000E947C02FF91EF91BF91AF919F918F9180
:102050007F916F915F914F913F912F910F900FBEA4
:102060000F901F9018951F920F920FB60F92112488
:102070002F938F939F93EF93FF93E091A102F091A1
:10208000A2028081E091A702F091A80282FD1BC00C
:1020900090818091AA028F5F8F732091AB0282178B
:1020A00041F0E091AA02F0E0EF56FD4F958F80934A
:1020B000AA02FF91EF919F918F912F910F900FBEE8
:1020C0000F901F9018958081F4CF1F920F920FB63A
:1020D0000F9211242F933F934F935F936F937F93AE
:1020E0008F939F93AF93BF93EF93FF938091B9002A
:1020F000887F803609F44AC0F0F5883209F4A7C019
:1021000018F5803109F49BC0B8F4882309F4F9C0AC
:10211000883009F494C0FF91EF91BF91AF919F91E6
:102120008F917F916F915F914F913F912F910F9080
:102130000FBE0F901F901895883109F488C0803227
:1021400051F78093650214C0803409F49DC040F4B7
:102150008033B9F38833F9F68093650285ECB0C01B
:10216000803509F485C0883509F496C0883499F61D
:102170000E94020FD0CF883909F48CC038F5883717
:1021800029F050F4883611F0803729F683E08093E7
:1021900067021092B30157C0883809F47BC08039B8
:1021A00019F0803809F0B7CF8091B301803208F080
:1021B00071C0E091B30181E08E0F8093B3018091F3
:1021C000BB00F0E0ED56FE4F80833DC0803B39F010
:1021D000E0F4803A09F479C0883A09F09CCF84E0B1
:1021E000809367021092920110929101E0911D027A
:1021F000F0911E0209958091910181110FC081E03B
:10220000809391011092710109C0803C09F4A6CF1E
:10221000883C09F4A3CF883B09F07DCFE09192017F
:1022200081E08E0F80939201F0E0EF58FE4F8081A5
:102230008093BB00909192018091910129C080917F
:1022400042028093BB0085EC8093BC0064CF9091E8
:10225000640280916302981758F5E091640281E06E
:102260008E0F80936402F0E0ED5BFD4F8081E9CF3B
:10227000E091640281E08E0F809364028091BB0044
:10228000F0E0ED5BFD4F80839091640280916302EA
:102290009817C8F285E8D8CFE091640281E08E0FEC
:1022A000809364028091BB00F0E0ED5BFD4F808382
:1022B0008091660281115CCF81E08093410284EAC3
:1022C0008093BC001092670226CF85EC8093BC00FF
:1022D000109267028091B301803230F4E091B30133
:1022E000F0E0ED56FE4F10826091B30170E0E09196
:1022F0001B02F0911C0283E991E009951092B30151
:102300000ACF1092650234CFCF93DF93EC018DE1B9
:1023100091E0998388831F82188A198A1A8A1B8AF6
:102320001C8A1D8A1E8A1F8A188E198E1A8E1B8E71
:102330001C8E1D8E1E8E1F8E18A219A21AA21BA201
:1023400080E090E0A0E8BFE38CA39DA3AEA3BFA371
:102350001B821C821D821E8221E030E03DA72CA73B
:102360002FEF2FA718A619A61AA61BA6188619863E
:102370001A861B8679AB68AB5BAB4AAB1CAA1DAA5D
:102380001EAA1FAA18AE19AE1AAE1BAE1CAE1DAE09
:102390001EAE1FAEFE01E05CFF4F80839183A283DF
:1023A000B3831A821C861D861E861F86AC01BD0162
:1023B000CE010E947B0E40E050E060E87FE3CE015A
:1023C000DF91CF910C94D105E1E9F2E01382128202
:1023D00088EE93E0A0E0B0E084839583A683B78382
:1023E00020E431E03183208325EC30E035872487F9
:1023F00024EC30E03787268720EC30E0318B208BCF
:1024000021EC30E0338B228B22EC30E0358B248BB7
:1024100026EC30E0378B268B118E128E138E148EA5
:10242000EEE2F3E01382128284839583A683B7835E
:1024300082E591E09183808349E05BE065E07BE0A9
:1024400086E593E00E94841141E15BE06DE07BE072
:102450008AE993E00E94841149E15BE065E17BE059
:102460008EED93E00E94841141E25BE06DE17BE040
:1024700082E294E00E94841149E25BE065E27BE045
:1024800086E694E00E94841141E35BE06DE27BE02C
:102490008AEA94E00E948411EAE3F3E01382128254
:1024A00084E691E091838083128E148A8FE0848386
:1024B0008EE085838DE086838CE087838BE0808748
:1024C0008AE0818789E08287178681E0808B82E0BD
:1024D000818B83E0828B84E0838B0895CF93DF939D
:1024E000CDB7DEB7C255D1090FB6F894DEBF0FBE27
:1024F000CDBF789484B5826084BD84B5816084BD8D
:1025000085B5826085BD85B5816085BD80916E0091
:10251000816080936E0010928100809181008260C2
:1025200080938100809181008160809381008091FF
:1025300080008160809380008091B10084608093EE
:10254000B1008091B00081608093B00080917A00EA
:10255000846080937A0080917A00826080937A0010
:1025600080917A00816080937A0080917A008068FF
:1025700080937A001092C100E091A102F091A20232
:1025800082E08083E0919D02F0919E021082E091B2
:102590009F02F091A00280E180831092A902E09155
:1025A000A502F091A60286E08083E091A302F0915B
:1025B000A402808180618083E091A302F091A40253
:1025C000808188608083E091A302F091A4028081E1
:1025D00080688083E091A302F091A40280818F7DC6
:1025E00080830E94E5078CE08093B80009E311E046
:1025F000FCE3CF2EF1E0DF2EABECAA2EA7E0BA2E43
:10260000D801FD908D018F2D0E94050190E080E0A2
:102610000E94590A80E290E00E94590A0E941D0817
:10262000C5010197F1F78F2D0E94050181E090E02F
:102630000E94590A84E090E00E94590A0E941D08F5
:10264000C016D106E9F606EB11E077EFE72E71E050
:10265000F72EE6E5CE2EE3E0DE2E47015801F50128
:1026600011925F01D4011D924D0140E050E064E3FE
:1026700073E4C6010E94D10540E050E068E473E4D1
:10268000C6010E947B0EB4E4CB0ED11CECEBAE165F
:10269000E1E0BE0621F7BE01665D7F4F80E00E944B
:1026A000400ED82EBE016F5F7F4F81E00E94400E2A
:1026B000D11085C1FE018111DCC18093BC0110E005
:1026C000D7016D917D01812F0E94A50A1F5F1630F1
:1026D000B9F7809154038F3F09F4A5C00E94E50724
:1026E000109255030E94E5078091550380620E9475
:1026F000050180E00E945E0A8FEF0E945E0A0E9440
:102700001D088091550380620E94050181E00E94AE
:102710005E0A8FEF0E945E0A0E941D0841E068E099
:1027200085E593E00E94B60B41E066E085E593E025
:102730000E94B60B41E067E085E593E00E94B60B8E
:1027400087E00E94960B60913F03662329F041E0E9
:1027500085E593E00E94F80B41E060913E0385E53A
:1027600093E00E94F80B41E06091400385E593E01F
:102770000E94F80B01E413E05AE3E52E53E0F52E36
:1027800065E4C62E63E0D62EF80161918F0141E029
:1027900085E593E00E94F80BC016D106A9F740E04A
:1027A000D7011F966C9185E593E00E94F80BF70125
:1027B0001785103178F50CE0183010F018500DE046
:1027C0008091550380620E940501802F0E945E0A5D
:1027D0000E941D0880915503806261E070E090E0E6
:1027E0000E94360B8EE293E00E94E309D82E80917E
:1027F000550380620E940501802F0E945E0A81E0DD
:1028000090E001C0880F1A95EAF78D290E945E0AB0
:102810000E941D08FFEFEF1AFF0A2FE3E21623E0E4
:10282000F20609F0BCCF80914E03886080934E037E
:1028300082E080935203109253038BE39DE0019753
:10284000F1F740E060913E038AE393E00E94860B3B
:1028500040E0609140038AE393E00E94860B609120
:102860003F036F3F29F040E08AE393E00E94860B2C
:1028700080914E0384FDFFC063E08AE393E00E94F1
:10288000150C0BE416E4C8010197F1F763E08AE345
:1028900093E00E94150CC8010197F1F763E08AE309
:1028A00093E00E94150C83E592E00197F1F762E056
:1028B0008AE393E00E94150C80914E0380620E948F
:1028C0004D0D84E080934F038CE00E944D0D81E01C
:1028D0000E944D0D0BE31FE1C8010197F1F782E063
:1028E0008093500386E00E944D0D81E00E944D0DC3
:1028F000C8010197F1F787E00E94960B64EA70E047
:102900008AE393E00E94DA0181E00E94530D8091F6
:10291000BC0162E970E0811102C060E870E08AE306
:1029200093E00E94DA018CE08093B80060E08EE0D2
:102930000E94720160E08FE00E9472010E94160EF8
:1029400042E0442E512C612C712C81E992E00E94CE
:102950005C02892B09F454C381E992E00E943A0297
:102960008D3099F3E091BE018A3009F03DC3AE2F5E
:10297000B0E0A154BE4F1C92EE2309F494C08FEB3B
:1029800091E0DC01EC910196E032D9F38FE98E0FF2
:102990008A3108F086C0E0521196AE014F5F5F4F5A
:1029A00080E0EC3409F0AEC08D019D919032E1F3EE
:1029B00091117CC089E591E00E94070E74C02CA59E
:1029C0003DA5882309F453C08B819C81281B390BBA
:1029D000FE01121613060CF04CC0BA968281938148
:1029E0009093B5018093B401CF0104966F012CE15F
:1029F000C20ED11CB60147EF51E0A6E5B3E0FC01E1
:102A000081909190A190B190CF0150968D929D921E
:102A1000AD92BC92539754968D929D92AD92BC927A
:102A20005797D4961D921D921D921C92D79713967C
:102A30001D921D921D921C92169758961D921D92E2
:102A40001D921C925B97F60121916F012770F8018E
:102A500021938F01F60125812F70FA012193AF0197
:102A6000AC5BBF4F6817790751F681E026CEFE01B7
:102A7000B4CF3196B3CF80620E944D0D8BE496E4C3
:102A80000197F1F780914E0380620E944D0D83E51E
:102A900092E00197F1F780914E0380620E944D0D04
:102AA0000BCFE11179CF1092BE014FCF81E091336E
:102AB00009F080E0D80111969C91903299F00F5F57
:102AC0001F4F0E94530DE12CF80161918F01662385
:102AD00061F0F0E1EF1699F08AE393E00E94810D36
:102AE000E394F2CF0E5F1F4FECCF20E1E21639F0F6
:102AF00060E28AE393E00E94810DE394F6CF86E5DD
:102B000091E05ACF9C919923D1F0853009F4FBC311
:102B10009D019D919032E1F3992309F415C48F5FD3
:102B2000DA012D933D93AD01D9019C912F5F3F4F69
:102B3000992341F39032C1F71C92D901E3CFE354BA
:102B4000E63108F04EC20E2E000CFF0BE655FA4E91
:102B50000C94051D7217F117F117F1178B17F11768
:102B6000F117F117F117F117F117F117F117F11725
:102B7000C3159B1703176F16F117C015F1173517FB
:102B80000E94160E90CF6FEC70E081E992E00E94F7
:102B9000DA0106E513E0E12CF80160897189828988
:102BA0009389A30192010E94E61CCA01B9010E9407
:102BB000D50DF5E0EF1619F08CE20E94EB02E394DC
:102BC0000C5B1F4F26E0E212E7CF6BEC70E081E96F
:102BD00092E00E94DA01E6E5F3E090E080E060E058
:102BE00084889588A688B7880089118922893389C5
:102BF00080169106A206B30641F021E030E0082ECF
:102C000001C0220F0A94EAF7622B0196EC5BFF4F9A
:102C10008630910529F770E090E080E04AE00E945C
:102C2000870D67EC70E081E992E00E94DA01609123
:102C3000010270E090E080E04AE00E94870D63ECC2
:102C400070E081E992E00E94DA0160910A027091DD
:102C50000B0280910C0290910D024AE00E94870DB8
:102C60006FEB70E081E992E00E94DA016091080266
:102C700070910902072E000C880B990B0E94D50D4C
:102C80006BEB70E081E992E00E94DA01609106024C
:102C900070910702072E000C880B990B0E94D50D2E
:102CA00067EB70E081E992E00E94DA016091BC017B
:102CB00070E090E080E00E94D50D63EB70E081E968
:102CC00092E00E94DA016091BD0170E090E080E046
:102CD0000E94D50D0E94FF0D10920102E4CE8530B6
:102CE00019F08DE491E068CE89819A810E94240ECA
:102CF000082F83E491E007FD5FCE8D819E810E94C5
:102D0000D9191B01E82E892E8F8198850E94D91927
:102D1000962EA72EB82EF92EC02E002E000CDD0800
:102D200034E40302800111240A5A1C4FB1018E2D94
:102D3000982D161617061806190624F061E070E0A3
:102D400080E090E00E94471B9B01AC010E942C1A7E
:102D5000AB01BC01C8010E94D105692D7A2D8B2DD4
:102D60009F2D161617061806190624F061E070E06C
:102D700080E090E00E94471B9B01AC010E942C1A4E
:102D80004B015C0120E030E0A9010E94981A8823E1
:102D900029F0B501A401C8010E947B0E89859A859E
:102DA0000E94D919F601E950FE4F6F7060831092AE
:102DB000BD018B819C810E94D919DC01CB01880F58
:102DC000991FAA1FBB1F44E44C9DF0014D9DF00DBF
:102DD0001124EA5AFC4F84889588A688B7888815FC
:102DE0009905AA05BB0561F0848B958BA68BB78BE3
:102DF0000190F081E02D0084F185E02DC801099556
:102E000080E491E0D9CD811103C087E391E0D4CD76
:102E100089819A810E94240E8E3F19F48DE291E0FF
:102E2000CBCD8F3FD9F486E593E00E9411038AE968
:102E300093E00E9411038EED93E00E94110382E261
:102E400094E00E94110386E694E00E9411038AEA4E
:102E500094E00E9411038AE291E0AECD54E4850231
:102E6000C00111248A5A9C4FF4CF823018F481E2B9
:102E700091E0A2CD89819A810E94240E182F87E1CA
:102E800091E017FD99CD8B819C810E94D919DC01BD
:102E9000CB01880F991FAA1FBB1F24E41203F00166
:102EA0001124EA5AFC4F808B918BA28BB38B848BBD
:102EB000958BA68BB78B14AA15AA16AA17AA1382EC
:102EC000148215821682108E118E128E138E31E0AE
:102ED0003093BC018091000187FD0E943A0F84E18C
:102EE00091E06ACD823018F48BE091E065CD898164
:102EF0009A810E94240E182F81E091E017FD5CCD8D
:102F00008B819C810E94D9196F70812F0E94A50A24
:102F10008EEF90E051CD811103C085EF90E04CCD54
:102F200089819A810E94D919862F87700E94960BF9
:102F300082EF90E041CD823018F489EE90E03CCDF4
:102F400089819A810E94D9194B015C018B819C81F6
:102F50000E94D9196B017C01B7FC14C0DC01CB01C4
:102F60000197A109B1094097A105B10558F4D50110
:102F7000C4018C0D9D1DAE1DBF1D81309440A10567
:102F8000B1051CF08FED90E017CD6CED70E081E99C
:102F900092E00E94DA01C501B4010E94D50D8601BC
:102FA000D12CC12CC601880D991D0E94151AE82E3E
:102FB00080E20E94EB025FE05E1518F080E30E9461
:102FC000EB026E2D70E090E080E040E10E94870D02
:102FD0008FEFC81AD80AC016D10621F70E94FF0D3C
:102FE00062CD84ED90E0E8CCE73308F05CCD91E071
:102FF0009E0F9093BE01F0E0E154FE4F8083A5CC7C
:103000008FB7F8948090130290901402A09015024C
:10301000B09016028FBF80910E0290910F02A09186
:103020001002B0911102A5019401281B390B4A0B23
:103030005B0BDA01C901883E9340A105B10548F157
:1030400080920E0290920F02A0921002B092110292
:1030500080910A0290910B02A0910C02B0910D0296
:103060000196A11DB11D80930A0290930B02A093BB
:103070000C02B0930D028EE00E94A301909309020E
:10308000809308028FE00E94A3019093070280932F
:1030900006028091020290910302A0910402B09175
:1030A0000502A5019401281B390B4A0B5B0BDA01C1
:1030B000C901C297A105B105D8F080920202909291
:1030C0000302A0920402B092050280E20E94050170
:1030D00062E18EE293E00E942A0A0E941D08882382
:1030E00009F4DCC080E090910102892B80930102F9
:1030F0008091000187FF1EC0E6E5F3E010E04489FF
:1031000055896689778980899189A289B389481709
:1031100059076A077B0709F4DEC08EE00E94A3010D
:1031200090930902809308028A3892400CF0C8C03C
:103130000E947C0AE0900001E7FCA3C08091FD01A1
:103140009091FE01A091FF01B0910002A5019401B0
:10315000281B390B4A0B5B0BDA01C9014497A10507
:10316000B105A0F08092FD019092FE01A092FF01B6
:10317000B09200028EE00E94A30190930902809316
:1031800008028A38924014F40E947C0ACE2C0E2C3D
:10319000000CDD0844E44C9D80014D9D100D112470
:1031A0000A5A1C4FD80154964D915D916D917C91B6
:1031B000579750968D919D910D90BC91A02D4817D9
:1031C00059076A077B0709F491C0F801838194814C
:1031D000A581B681892B8A2B8B2B09F452C00E94C2
:1031E000B5014B015C01F80180A591A5A2A5B3A58D
:1031F000B501A401481B590B6A0B7B0B8381948199
:10320000A581B681481759076A077B07D0F18089E5
:103210009189A289B3892281222309F463C001968E
:10322000A11DB11D808B918BA28BB38BFE2D24E44D
:10323000F202800111240A5A1C4F2C9DC0012D9DC1
:10324000900D1124AC014A5A5C4F6A01DA01509684
:103250004D915D916D917C915397ED91FC9104841A
:10326000F585E02DC8010995F60180A691A6A2A6D4
:10327000B3A60190F081E02D0084F185E02DC80116
:10328000099520E030E0232B09F45FCB0E9468020F
:10329000882309F45ACB0E94000057CB61E080E2FA
:1032A0000E9404091092200280931F02813009F0CD
:1032B00019CF8EE293E00E94E30980958F7113CFBE
:1032C000109300018092FD019092FE01A092FF01F7
:1032D000B09200022FCF1F5FEC5BFF4F163009F05A
:1032E0000ECF28CF0197A109B1099CCFF601E95073
:1032F000FE4F60818E2D0E94A50AFFEFF093000122
:103300000E943A0FBECFE354E63108F06ACE0E2E8B
:10331000000CFF0BE257F64E0C94051D7717F117C2
:10332000F117F1179017F117F117F117F117F117BE
:10333000F117F117F117F117C315A0170817741635
:10334000F117C015F1173A17E354E63108F049CEEA
:103350000E2E000CFF0BE155F64E0C94051D721756
:10336000F117F117F1178B17F117F117F117F11783
:10337000F117F117F117F117F117C3159B17031781
:103380007116F117C015F1173517CF93DF93CEEEF5
:10339000D4E0C454D109E881F9810480F581E02D9D
:1033A000CE01099583E0C635D80799F7DF91CF9113
:1033B00008951F93FC0199278827BC01E894119177
:1033C0001032E9F3193010F01E30C8F31B3251F0FF
:1033D0001D3249F4689406C00E94001A610F711DE5
:1033E000811D911D119110531A30B0F33EF4909548
:1033F0008095709561957F4F8F4F9F4F1F910895D6
:10340000592F482F372F262F660F771F881F991F98
:10341000660F771F881F991F620F731F841F951FE8
:10342000660F771F881F991F0895F999FECF92BDE7
:1034300081BDF89A992780B50895262FF999FECF76
:103440001FBA92BD81BD20BD0FB6F894FA9AF99AC1
:103450000FBE019608955058BB27AA270E94431A11
:103460000C94BD1B0E94AF1B38F00E94B61B20F0CD
:1034700039F49F3F19F426F40C94AC1B0EF4E0953C
:10348000E7FB0C94A61BE92F0E94CE1B58F3BA173A
:10349000620773078407950720F079F4A6F50C946A
:1034A000F01B0EF4E0950B2EBA2FA02D0B01B901E5
:1034B00090010C01CA01A0011124FF27591B99F0AA
:1034C000593F50F4503E68F11A16F040A22F232FB6
:1034D000342F4427585FF3CF469537952795A79506
:1034E000F0405395C9F77EF41F16BA0B620B730BAD
:1034F000840BBAF09150A1F0FF0FBB1F661F771F1E
:10350000881FC2F70EC0BA0F621F731F841F48F4D2
:10351000879577956795B795F7959E3F08F0B0CF5B
:103520009395880F08F09927EE0F97958795089542
:103530000E94821B08F481E008950E94B11A0C9445
:10354000BD1B0E94B61B58F00E94AF1B40F029F42F
:103550005F3F29F00C94A61B51110C94F11B0C94A5
:10356000AC1B0E94CE1B68F39923B1F3552391F352
:10357000951B550BBB27AA2762177307840738F0E2
:103580009F5F5F4F220F331F441FAA1FA9F335D03F
:103590000E2E3AF0E0E832D091505040E695001CF3
:1035A000CAF72BD0FE2F29D0660F771F881FBB1FAD
:1035B000261737074807AB07B0E809F0BB0B802D8B
:1035C000BF01FF2793585F4F3AF09E3F510578F0B7
:1035D0000C94A61B0C94F11B5F3FE4F3983ED4F3CC
:1035E000869577956795B795F7959F5FC9F7880F8B
:1035F000911D9695879597F90895E1E0660F771FDD
:10360000881FBB1F621773078407BA0720F0621B6D
:10361000730B840BBA0BEE1F88F7E09508950E9498
:10362000161B6894B1110C94F11B08950E94D61BCF
:1036300088F09F5798F0B92F9927B751B0F0E1F073
:10364000660F771F881F991F1AF0BA95C9F714C023
:10365000B13091F00E94F01BB1E008950C94F01B82
:10366000672F782F8827B85F39F0B93FCCF386955C
:1036700077956795B395D9F73EF4909580957095B9
:1036800061957F4F8F4F9F4F0895E89409C097FB36
:103690003EF490958095709561957F4F8F4F9F4F29
:1036A0009923A9F0F92F96E9BB279395F69587956D
:1036B00077956795B795F111F8CFFAF4BB0F11F430
:1036C00060FF1BC06F5F7F4F8F4F9F4F16C08823D7
:1036D00011F096E911C0772321F09EE8872F762F0D
:1036E00005C0662371F096E8862F70E060E02AF04E
:1036F0009A95660F771F881FDAF7880F969587953A
:1037000097F90895990F0008550FAA0BE0E8FEEF0E
:1037100016161706E807F907C0F012161306E40795
:10372000F50798F0621B730B840B950B39F40A268E
:1037300061F0232B242B252B21F408950A2609F46C
:10374000A140A6958FEF811D811D089597F99F6770
:1037500080E870E060E008959FEF80EC0895002419
:103760000A941616170618060906089500240A94E6
:1037700012161306140605060895092E0394000C6C
:1037800011F4882352F0BB0F40F4BF2B11F460FFFB
:1037900004C06F5F7F4F8F4F9F4F089557FD905824
:1037A000440F551F59F05F3F71F04795880F97FB05
:1037B000991F61F09F3F79F08795089512161306BF
:1037C0001406551FF2CF4695F1DF08C016161706EE
:1037D0001806991FF1CF8695710561050894089523
:1037E000E894BB2766277727CB0197F908950E94B5
:1037F000821B08F48FEF08950E940F1C0C94BD1BD0
:103800000E94AF1B38F00E94B61B20F0952311F0E8
:103810000C94A61B0C94AC1B11240C94F11B0E945D
:10382000CE1B70F3959FC1F3950F50E0551F629F1B
:10383000F001729FBB27F00DB11D639FAA27F00D09
:10384000B11DAA1F649F6627B00DA11D661F829F30
:103850002227B00DA11D621F739FB00DA11D621F15
:10386000839FA00D611D221F749F3327A00D611D32
:10387000231F849F600D211D822F762F6A2F112414
:103880009F5750409AF0F1F088234AF0EE0FFF1F47
:10389000BB1F661F771F881F91505040A9F79E3F9E
:1038A000510580F00C94A61B0C94F11B5F3FE4F3D0
:1038B000983ED4F3869577956795B795F795E795F4
:1038C0009F5FC1F7FE2B880F911D9695879597F9FD
:1038D000089519F416F40C94AC1B0C94AF1C0E94C0
:1038E000D61BB8F39923C9F3B6F39F57550B87FF3F
:1038F0000E94BD1C0024A0E640EA90018058569525
:10390000979528F4805C660F771F881F20F0261794
:103910003707480730F4621B730B840B20293129C9
:103920004A2BA69517940794202531254A2758F746
:10393000660F771F881F20F026173707480730F4D7
:10394000620B730B840B200D311D411DA09581F777
:10395000B901842F9158880F9695879508959F3FB8
:1039600031F0915020F4879577956795B795880F3A
:10397000911D9695879597F9089591505040660F3F
:10398000771F881FD2F70895A1E21A2EAA1BBB1B2E
:10399000FD010DC0AA1FBB1FEE1FFF1FA217B3071B
:1039A000E407F50720F0A21BB30BE40BF50B661F31
:1039B000771F881F991F1A9469F7609570958095F5
:1039C00090959B01AC01BD01CF010895052E97FB99
:1039D0001EF400940E94FD1C57FD07D00E94C41CD9
:1039E00007FC03D04EF40C94FD1C50954095309587
:1039F00021953F4F4F4F5F4F08959095809570955B
:103A000061957F4F8F4F9F4F0895EE0FFF1F0590D9
:103A1000F491E02D09940F931F93CF93DF9382309D
:103A2000910510F482E090E0E091F004F091F1044F
:103A300030E020E0B0E0A0E0309799F421153105A6
:103A400009F44AC0281B390B24303105D8F58A8186
:103A50009B816115710589F1FB0193838283FE01CE
:103A600011C0408151810281138148175907E0F04C
:103A70004817590799F4109761F012960C93129712
:103A800013961C933296CF01DF91CF911F910F9126
:103A900008950093F0041093F104F4CF211531053B
:103AA00051F04217530738F0A901DB019A01BD011B
:103AB000DF01F801C1CFEF01F9CF9093F1048093BA
:103AC000F004CDCFFE01E20FF31F819391932250BA
:103AD000310939832883D7CF2091EE043091EF0448
:103AE000232B41F420910301309104013093EF0422
:103AF0002093EE042091010130910201211531053E
:103B000041F42DB73EB74091050150910601241BA9
:103B1000350BE091EE04F091EF04E217F307A0F407
:103B20002E1B3F0B2817390778F0AC014E5F5F4F13
:103B30002417350748F04E0F5F1F5093EF04409352
:103B4000EE04819391939FCFF0E0E0E09CCFCF9380
:103B5000DF930097E9F0FC01329713821282A09163
:103B6000F004B091F104ED0130E020E01097A1F4F1
:103B700020813181820F931F2091EE043091EF0458
:103B80002817390709F061C0F093EF04E093EE04C1
:103B9000DF91CF910895EA01CE17DF07E8F54A815A
:103BA0005B819E0141155105B1F7E901FB83EA8371
:103BB00049915991C40FD51FEC17FD0761F480811D
:103BC00091810296840F951FE901998388838281F0
:103BD00093819B838A83F0E0E0E012968D919C9123
:103BE00013970097B9F52D913C911197CD0102964D
:103BF000820F931F2091EE043091EF0428173907AC
:103C000039F6309751F51092F1041092F004B09308
:103C1000EF04A093EE04BCCFD383C28340815181D3
:103C2000840F951FC817D90761F44E5F5F4F8881D5
:103C30009981480F591F518340838A819B819383C7
:103C400082832115310509F0B0CFF093F104E093A0
:103C5000F0049ECFFD01DC01C0CF13821282D7CFCA
:103C600010E0CAEDD0E004C0FE010E94051D2196BF
:0A3C7000CB3DD107C9F7F894FFCF50
:103C7A00FF0000F204800000004000140054000914
:103C8A00030604050109080A0200000000F203BE47
:103C9A0003350BC10F4706530591053D050B05EA90
:103CAA0004B60495043F0410047C7D7E00000000E5
:103CBA009E02FE012B02F0025C023A024E02000052
:103CCA0000002A0AFD09790AD309F609E309D40989
:103CDA0000000000810DFE01790A10030D0A0000A0
:00000001FF
